{
  "abi": [
    {
      "type": "constructor",
      "inputs": [
        {
          "name": "treasury_",
          "type": "address",
          "internalType": "address"
        },
        {
          "name": "admin_",
          "type": "address",
          "internalType": "address"
        },
        {
          "name": "operator_",
          "type": "address",
          "internalType": "address"
        },
        {
          "name": "swapCaller_",
          "type": "address",
          "internalType": "address"
        }
      ],
      "stateMutability": "nonpayable"
    },
    {
      "type": "function",
      "name": "DEFAULT_ADMIN_ROLE",
      "inputs": [],
      "outputs": [
        {
          "name": "",
          "type": "bytes32",
          "internalType": "bytes32"
        }
      ],
      "stateMutability": "view"
    },
    {
      "type": "function",
      "name": "FEE_BPS",
      "inputs": [],
      "outputs": [
        {
          "name": "",
          "type": "uint16",
          "internalType": "uint16"
        }
      ],
      "stateMutability": "view"
    },
    {
      "type": "function",
      "name": "NATIVE_TOKEN",
      "inputs": [],
      "outputs": [
        {
          "name": "",
          "type": "address",
          "internalType": "address"
        }
      ],
      "stateMutability": "view"
    },
    {
      "type": "function",
      "name": "NUDGE_ADMIN_ROLE",
      "inputs": [],
      "outputs": [
        {
          "name": "",
          "type": "bytes32",
          "internalType": "bytes32"
        }
      ],
      "stateMutability": "view"
    },
    {
      "type": "function",
      "name": "NUDGE_OPERATOR_ROLE",
      "inputs": [],
      "outputs": [
        {
          "name": "",
          "type": "bytes32",
          "internalType": "bytes32"
        }
      ],
      "stateMutability": "view"
    },
    {
      "type": "function",
      "name": "SWAP_CALLER_ROLE",
      "inputs": [],
      "outputs": [
        {
          "name": "",
          "type": "bytes32",
          "internalType": "bytes32"
        }
      ],
      "stateMutability": "view"
    },
    {
      "type": "function",
      "name": "campaignAddresses",
      "inputs": [
        {
          "name": "",
          "type": "uint256",
          "internalType": "uint256"
        }
      ],
      "outputs": [
        {
          "name": "",
          "type": "address",
          "internalType": "address"
        }
      ],
      "stateMutability": "view"
    },
    {
      "type": "function",
      "name": "collectFeesFromCampaigns",
      "inputs": [
        {
          "name": "campaigns",
          "type": "address[]",
          "internalType": "address[]"
        }
      ],
      "outputs": [],
      "stateMutability": "nonpayable"
    },
    {
      "type": "function",
      "name": "deployAndFundCampaign",
      "inputs": [
        {
          "name": "holdingPeriodInSeconds",
          "type": "uint32",
          "internalType": "uint32"
        },
        {
          "name": "targetToken",
          "type": "address",
          "internalType": "address"
        },
        {
          "name": "rewardToken",
          "type": "address",
          "internalType": "address"
        },
        {
          "name": "rewardPPQ",
          "type": "uint256",
          "internalType": "uint256"
        },
        {
          "name": "campaignAdmin",
          "type": "address",
          "internalType": "address"
        },
        {
          "name": "startTimestamp",
          "type": "uint256",
          "internalType": "uint256"
        },
        {
          "name": "alternativeWithdrawalAddress",
          "type": "address",
          "internalType": "address"
        },
        {
          "name": "initialRewardAmount",
          "type": "uint256",
          "internalType": "uint256"
        },
        {
          "name": "uuid",
          "type": "uint256",
          "internalType": "uint256"
        }
      ],
      "outputs": [
        {
          "name": "campaign",
          "type": "address",
          "internalType": "address"
        }
      ],
      "stateMutability": "payable"
    },
    {
      "type": "function",
      "name": "deployCampaign",
      "inputs": [
        {
          "name": "holdingPeriodInSeconds",
          "type": "uint32",
          "internalType": "uint32"
        },
        {
          "name": "targetToken",
          "type": "address",
          "internalType": "address"
        },
        {
          "name": "rewardToken",
          "type": "address",
          "internalType": "address"
        },
        {
          "name": "rewardPPQ",
          "type": "uint256",
          "internalType": "uint256"
        },
        {
          "name": "campaignAdmin",
          "type": "address",
          "internalType": "address"
        },
        {
          "name": "startTimestamp",
          "type": "uint256",
          "internalType": "uint256"
        },
        {
          "name": "alternativeWithdrawalAddress",
          "type": "address",
          "internalType": "address"
        },
        {
          "name": "uuid",
          "type": "uint256",
          "internalType": "uint256"
        }
      ],
      "outputs": [
        {
          "name": "campaign",
          "type": "address",
          "internalType": "address"
        }
      ],
      "stateMutability": "nonpayable"
    },
    {
      "type": "function",
      "name": "getCampaignAddress",
      "inputs": [
        {
          "name": "holdingPeriodInSeconds",
          "type": "uint32",
          "internalType": "uint32"
        },
        {
          "name": "targetToken",
          "type": "address",
          "internalType": "address"
        },
        {
          "name": "rewardToken",
          "type": "address",
          "internalType": "address"
        },
        {
          "name": "rewardPPQ",
          "type": "uint256",
          "internalType": "uint256"
        },
        {
          "name": "campaignAdmin",
          "type": "address",
          "internalType": "address"
        },
        {
          "name": "startTimestamp",
          "type": "uint256",
          "internalType": "uint256"
        },
        {
          "name": "feeBps",
          "type": "uint16",
          "internalType": "uint16"
        },
        {
          "name": "alternativeWithdrawalAddress",
          "type": "address",
          "internalType": "address"
        },
        {
          "name": "uuid",
          "type": "uint256",
          "internalType": "uint256"
        }
      ],
      "outputs": [
        {
          "name": "computedAddress",
          "type": "address",
          "internalType": "address"
        }
      ],
      "stateMutability": "view"
    },
    {
      "type": "function",
      "name": "getCampaignCount",
      "inputs": [],
      "outputs": [
        {
          "name": "",
          "type": "uint256",
          "internalType": "uint256"
        }
      ],
      "stateMutability": "view"
    },
    {
      "type": "function",
      "name": "getRoleAdmin",
      "inputs": [
        {
          "name": "role",
          "type": "bytes32",
          "internalType": "bytes32"
        }
      ],
      "outputs": [
        {
          "name": "",
          "type": "bytes32",
          "internalType": "bytes32"
        }
      ],
      "stateMutability": "view"
    },
    {
      "type": "function",
      "name": "grantRole",
      "inputs": [
        {
          "name": "role",
          "type": "bytes32",
          "internalType": "bytes32"
        },
        {
          "name": "account",
          "type": "address",
          "internalType": "address"
        }
      ],
      "outputs": [],
      "stateMutability": "nonpayable"
    },
    {
      "type": "function",
      "name": "hasRole",
      "inputs": [
        {
          "name": "role",
          "type": "bytes32",
          "internalType": "bytes32"
        },
        {
          "name": "account",
          "type": "address",
          "internalType": "address"
        }
      ],
      "outputs": [
        {
          "name": "",
          "type": "bool",
          "internalType": "bool"
        }
      ],
      "stateMutability": "view"
    },
    {
      "type": "function",
      "name": "isCampaign",
      "inputs": [
        {
          "name": "",
          "type": "address",
          "internalType": "address"
        }
      ],
      "outputs": [
        {
          "name": "",
          "type": "bool",
          "internalType": "bool"
        }
      ],
      "stateMutability": "view"
    },
    {
      "type": "function",
      "name": "isCampaignPaused",
      "inputs": [
        {
          "name": "",
          "type": "address",
          "internalType": "address"
        }
      ],
      "outputs": [
        {
          "name": "",
          "type": "bool",
          "internalType": "bool"
        }
      ],
      "stateMutability": "view"
    },
    {
      "type": "function",
      "name": "nudgeTreasuryAddress",
      "inputs": [],
      "outputs": [
        {
          "name": "",
          "type": "address",
          "internalType": "address"
        }
      ],
      "stateMutability": "view"
    },
    {
      "type": "function",
      "name": "pauseCampaigns",
      "inputs": [
        {
          "name": "campaigns",
          "type": "address[]",
          "internalType": "address[]"
        }
      ],
      "outputs": [],
      "stateMutability": "nonpayable"
    },
    {
      "type": "function",
      "name": "renounceRole",
      "inputs": [
        {
          "name": "role",
          "type": "bytes32",
          "internalType": "bytes32"
        },
        {
          "name": "callerConfirmation",
          "type": "address",
          "internalType": "address"
        }
      ],
      "outputs": [],
      "stateMutability": "nonpayable"
    },
    {
      "type": "function",
      "name": "revokeRole",
      "inputs": [
        {
          "name": "role",
          "type": "bytes32",
          "internalType": "bytes32"
        },
        {
          "name": "account",
          "type": "address",
          "internalType": "address"
        }
      ],
      "outputs": [],
      "stateMutability": "nonpayable"
    },
    {
      "type": "function",
      "name": "supportsInterface",
      "inputs": [
        {
          "name": "interfaceId",
          "type": "bytes4",
          "internalType": "bytes4"
        }
      ],
      "outputs": [
        {
          "name": "",
          "type": "bool",
          "internalType": "bool"
        }
      ],
      "stateMutability": "view"
    },
    {
      "type": "function",
      "name": "unpauseCampaigns",
      "inputs": [
        {
          "name": "campaigns",
          "type": "address[]",
          "internalType": "address[]"
        }
      ],
      "outputs": [],
      "stateMutability": "nonpayable"
    },
    {
      "type": "function",
      "name": "updateFeeSetting",
      "inputs": [
        {
          "name": "newFeeBps",
          "type": "uint16",
          "internalType": "uint16"
        }
      ],
      "outputs": [],
      "stateMutability": "nonpayable"
    },
    {
      "type": "function",
      "name": "updateTreasuryAddress",
      "inputs": [
        {
          "name": "newTreasury",
          "type": "address",
          "internalType": "address"
        }
      ],
      "outputs": [],
      "stateMutability": "nonpayable"
    },
    {
      "type": "event",
      "name": "CampaignDeployed",
      "inputs": [
        {
          "name": "campaign",
          "type": "address",
          "indexed": true,
          "internalType": "address"
        },
        {
          "name": "admin",
          "type": "address",
          "indexed": true,
          "internalType": "address"
        },
        {
          "name": "targetToken",
          "type": "address",
          "indexed": false,
          "internalType": "address"
        },
        {
          "name": "rewardToken",
          "type": "address",
          "indexed": false,
          "internalType": "address"
        },
        {
          "name": "startTimestamp",
          "type": "uint256",
          "indexed": false,
          "internalType": "uint256"
        },
        {
          "name": "uuid",
          "type": "uint256",
          "indexed": false,
          "internalType": "uint256"
        }
      ],
      "anonymous": false
    },
    {
      "type": "event",
      "name": "CampaignsPaused",
      "inputs": [
        {
          "name": "campaigns",
          "type": "address[]",
          "indexed": false,
          "internalType": "address[]"
        }
      ],
      "anonymous": false
    },
    {
      "type": "event",
      "name": "CampaignsUnpaused",
      "inputs": [
        {
          "name": "campaigns",
          "type": "address[]",
          "indexed": false,
          "internalType": "address[]"
        }
      ],
      "anonymous": false
    },
    {
      "type": "event",
      "name": "FeeUpdated",
      "inputs": [
        {
          "name": "oldFeeBps",
          "type": "uint16",
          "indexed": false,
          "internalType": "uint16"
        },
        {
          "name": "newFeeBps",
          "type": "uint16",
          "indexed": false,
          "internalType": "uint16"
        }
      ],
      "anonymous": false
    },
    {
      "type": "event",
      "name": "FeesCollected",
      "inputs": [
        {
          "name": "campaigns",
          "type": "address[]",
          "indexed": false,
          "internalType": "address[]"
        },
        {
          "name": "totalAmount",
          "type": "uint256",
          "indexed": false,
          "internalType": "uint256"
        }
      ],
      "anonymous": false
    },
    {
      "type": "event",
      "name": "RoleAdminChanged",
      "inputs": [
        {
          "name": "role",
          "type": "bytes32",
          "indexed": true,
          "internalType": "bytes32"
        },
        {
          "name": "previousAdminRole",
          "type": "bytes32",
          "indexed": true,
          "internalType": "bytes32"
        },
        {
          "name": "newAdminRole",
          "type": "bytes32",
          "indexed": true,
          "internalType": "bytes32"
        }
      ],
      "anonymous": false
    },
    {
      "type": "event",
      "name": "RoleGranted",
      "inputs": [
        {
          "name": "role",
          "type": "bytes32",
          "indexed": true,
          "internalType": "bytes32"
        },
        {
          "name": "account",
          "type": "address",
          "indexed": true,
          "internalType": "address"
        },
        {
          "name": "sender",
          "type": "address",
          "indexed": true,
          "internalType": "address"
        }
      ],
      "anonymous": false
    },
    {
      "type": "event",
      "name": "RoleRevoked",
      "inputs": [
        {
          "name": "role",
          "type": "bytes32",
          "indexed": true,
          "internalType": "bytes32"
        },
        {
          "name": "account",
          "type": "address",
          "indexed": true,
          "internalType": "address"
        },
        {
          "name": "sender",
          "type": "address",
          "indexed": true,
          "internalType": "address"
        }
      ],
      "anonymous": false
    },
    {
      "type": "event",
      "name": "TreasuryUpdated",
      "inputs": [
        {
          "name": "oldTreasury",
          "type": "address",
          "indexed": true,
          "internalType": "address"
        },
        {
          "name": "newTreasury",
          "type": "address",
          "indexed": true,
          "internalType": "address"
        }
      ],
      "anonymous": false
    },
    {
      "type": "error",
      "name": "AccessControlBadConfirmation",
      "inputs": []
    },
    {
      "type": "error",
      "name": "AccessControlUnauthorizedAccount",
      "inputs": [
        {
          "name": "account",
          "type": "address",
          "internalType": "address"
        },
        {
          "name": "neededRole",
          "type": "bytes32",
          "internalType": "bytes32"
        }
      ]
    },
    {
      "type": "error",
      "name": "CampaignAlreadyPaused",
      "inputs": []
    },
    {
      "type": "error",
      "name": "CampaignNotPaused",
      "inputs": []
    },
    {
      "type": "error",
      "name": "Create2EmptyBytecode",
      "inputs": []
    },
    {
      "type": "error",
      "name": "FailedDeployment",
      "inputs": []
    },
    {
      "type": "error",
      "name": "IncorrectEtherAmount",
      "inputs": []
    },
    {
      "type": "error",
      "name": "InsufficientBalance",
      "inputs": [
        {
          "name": "balance",
          "type": "uint256",
          "internalType": "uint256"
        },
        {
          "name": "needed",
          "type": "uint256",
          "internalType": "uint256"
        }
      ]
    },
    {
      "type": "error",
      "name": "InvalidCampaign",
      "inputs": []
    },
    {
      "type": "error",
      "name": "InvalidFeeSetting",
      "inputs": []
    },
    {
      "type": "error",
      "name": "InvalidParameter",
      "inputs": []
    },
    {
      "type": "error",
      "name": "InvalidTreasuryAddress",
      "inputs": []
    },
    {
      "type": "error",
      "name": "NativeTokenTransferFailed",
      "inputs": []
    },
    {
      "type": "error",
      "name": "SafeERC20FailedOperation",
      "inputs": [
        {
          "name": "token",
          "type": "address",
          "internalType": "address"
        }
      ]
    },
    {
      "type": "error",
      "name": "ZeroAddress",
      "inputs": []
    }
  ],
  "bytecode": {
    "object": "0x60806040526001805461ffff60a01b1916607d60a31b179055348015610023575f5ffd5b5060405161482638038061482683398101604081905261004291610252565b6001600160a01b0384166100695760405163cfe2ea6360e01b815260040160405180910390fd5b6001600160a01b0383166100905760405163d92e233d60e01b815260040160405180910390fd5b6001600160a01b0382166100b75760405163d92e233d60e01b815260040160405180910390fd5b6001600160a01b0381166100de5760405163d92e233d60e01b815260040160405180910390fd5b600180546001600160a01b0319166001600160a01b0386161790556101035f8461018e565b5061012e7f3ddb80c4ea5aad5eeabf5ddd554d4cb03b1b1e633654fa461059269564627c0c8461018e565b506101597fd290eadd3dcc567ee05bc5ddd97172144146e533387661e9052e87a857f5ba7f8361018e565b506101847f3592d5f72ec6822879b4c5b499b8c5defd184210a3bffe3993a4efd554e2bf7d8261018e565b50505050506102a3565b5f828152602081815260408083206001600160a01b038516845290915281205460ff1661022e575f838152602081815260408083206001600160a01b03861684529091529020805460ff191660011790556101e63390565b6001600160a01b0316826001600160a01b0316847f2f8788117e7eff1d82e926ec794901d17c78024a50270940304540a733656f0d60405160405180910390a4506001610231565b505f5b92915050565b80516001600160a01b038116811461024d575f5ffd5b919050565b5f5f5f5f60808587031215610265575f5ffd5b61026e85610237565b935061027c60208601610237565b925061028a60408601610237565b915061029860608601610237565b905092959194509250565b614576806102b05f395ff3fe608060405260043610610161575f3560e01c80636dc91e65116100cd578063adf256f311610087578063bf333f2c11610062578063bf333f2c14610459578063d547741f1461048d578063e2714e1b146104ac578063f1104b7a146104da575f5ffd5b8063adf256f3146103e8578063b4879fc81461041b578063be4434fb1461043a575f5ffd5b80636dc91e651461032a57806371c0962a14610349578063841e4561146103775780638537ed1f1461039657806391d14854146103b6578063a217fddf146103d5575f5ffd5b80632f2ff15d1161011e5780632f2ff15d1461026b5780633093586a1461028a57806331f7d9641461029d57806336568abe146102c4578063620cad99146102e35780636caa921814610316575f5ffd5b806301dd60601461016557806301ffc9a7146101865780630da4eb87146101ba5780631b422e5f146101f1578063248a9ca3146102105780632643fc1d1461024c575b5f5ffd5b348015610170575f5ffd5b5061018461017f366004611358565b6104f9565b005b348015610191575f5ffd5b506101a56101a0366004611371565b61059e565b60405190151581526020015b60405180910390f35b3480156101c5575f5ffd5b506001546101d9906001600160a01b031681565b6040516001600160a01b0390911681526020016101b1565b3480156101fc575f5ffd5b506101d961020b366004611398565b6105d4565b34801561021b575f5ffd5b5061023e61022a366004611398565b5f9081526020819052604090206001015490565b6040519081526020016101b1565b348015610257575f5ffd5b506101846102663660046113af565b6105fc565b348015610276575f5ffd5b50610184610285366004611436565b610771565b6101d9610298366004611473565b61079b565b3480156102a8575f5ffd5b506101d973eeeeeeeeeeeeeeeeeeeeeeeeeeeeeeeeeeeeeeee81565b3480156102cf575f5ffd5b506101846102de366004611436565b610944565b3480156102ee575f5ffd5b5061023e7f3592d5f72ec6822879b4c5b499b8c5defd184210a3bffe3993a4efd554e2bf7d81565b348015610321575f5ffd5b5060035461023e565b348015610335575f5ffd5b506101846103443660046113af565b61097c565b348015610354575f5ffd5b506101a56103633660046114fc565b60046020525f908152604090205460ff1681565b348015610382575f5ffd5b506101846103913660046114fc565b610aef565b3480156103a1575f5ffd5b5061023e5f51602061454a5f395f51905f5281565b3480156103c1575f5ffd5b506101a56103d0366004611436565b610b7f565b3480156103e0575f5ffd5b5061023e5f81565b3480156103f3575f5ffd5b5061023e7fd290eadd3dcc567ee05bc5ddd97172144146e533387661e9052e87a857f5ba7f81565b348015610426575f5ffd5b506101846104353660046113af565b610ba7565b348015610445575f5ffd5b506101d9610454366004611515565b610d1c565b348015610464575f5ffd5b5060015461047a90600160a01b900461ffff1681565b60405161ffff90911681526020016101b1565b348015610498575f5ffd5b506101846104a7366004611436565b610df3565b3480156104b7575f5ffd5b506101a56104c63660046114fc565b60026020525f908152604090205460ff1681565b3480156104e5575f5ffd5b506101d96104f43660046115a5565b610e17565b5f51602061454a5f395f51905f526105108161105b565b6127108261ffff1611156105375760405163b34dad2360e01b815260040160405180910390fd5b6001805461ffff848116600160a01b81810261ffff60a01b1985161790945560408051949093049091168084526020840191909152917f2e7c4279000925b8ff0bca0e7109cbc47fc6f6c4edfb831ffe7466cf0af07fa091015b60405180910390a1505050565b5f6001600160e01b03198216637965db0b60e01b14806105ce57506301ffc9a760e01b6001600160e01b03198316145b92915050565b600381815481106105e3575f80fd5b5f918252602090912001546001600160a01b0316905081565b7fd290eadd3dcc567ee05bc5ddd97172144146e533387661e9052e87a857f5ba7f6106268161105b565b5f805b8381101561072f5760025f86868481811061064657610646611624565b905060200201602081019061065b91906114fc565b6001600160a01b0316815260208101919091526040015f205460ff1661069457604051630477a3e560e41b815260040160405180910390fd5b8484828181106106a6576106a6611624565b90506020020160208101906106bb91906114fc565b6001600160a01b031663c87965726040518163ffffffff1660e01b81526004016020604051808303815f875af11580156106f7573d5f5f3e3d5ffd5b505050506040513d601f19601f8201168201806040525081019061071b9190611638565b610725908361164f565b9150600101610629565b507fb85ae4f4912ba7db0bd6801c9e74518025e271fa9fc04e79964717cbb9ee6b39848483604051610763939291906116b4565b60405180910390a150505050565b5f8281526020819052604090206001015461078b8161105b565b6107958383611068565b50505050565b5f6001600160a01b0386166107c35760405163d92e233d60e01b815260040160405180910390fd5b6001600160a01b03891615806107e057506001600160a01b038816155b156107fe5760405163d92e233d60e01b815260040160405180910390fd5b8963ffffffff165f0361082457604051630309cb8760e51b815260040160405180910390fd5b73eeeeeeeeeeeeeeeeeeeeeeeeeeeeeeeeeeeeeeed196001600160a01b038916016108f15782341461086957604051631aa148a360e11b815260040160405180910390fd5b6108798a8a8a8a8a8a8a89610e17565b90505f816001600160a01b0316846040515f6040518083038185875af1925050503d805f81146108c4576040519150601f19603f3d011682016040523d82523d5f602084013e6108c9565b606091505b50509050806108eb57604051630c08bcb960e21b815260040160405180910390fd5b50610937565b341561091057604051631aa148a360e11b815260040160405180910390fd5b6109208a8a8a8a8a8a8a89610e17565b90506109376001600160a01b0389163383866110f7565b9998505050505050505050565b6001600160a01b038116331461096d5760405163334bd91960e11b815260040160405180910390fd5b6109778282611151565b505050565b5f51602061454a5f395f51905f526109938161105b565b5f5b82811015610abd5760025f8585848181106109b2576109b2611624565b90506020020160208101906109c791906114fc565b6001600160a01b0316815260208101919091526040015f205460ff16610a0057604051630477a3e560e41b815260040160405180910390fd5b60045f858584818110610a1557610a15611624565b9050602002016020810190610a2a91906114fc565b6001600160a01b0316815260208101919091526040015f205460ff16610a6357604051636428884d60e11b815260040160405180910390fd5b5f60045f868685818110610a7957610a79611624565b9050602002016020810190610a8e91906114fc565b6001600160a01b0316815260208101919091526040015f20805460ff1916911515919091179055600101610995565b507fc354fd29f66dd3daba40cddbc6cba8e9bf5fe77cb8d3db181474a300d2892bc083836040516105919291906116d7565b5f51602061454a5f395f51905f52610b068161105b565b6001600160a01b038216610b2d5760405163cfe2ea6360e01b815260040160405180910390fd5b600180546001600160a01b038481166001600160a01b0319831681179093556040519116919082907f4ab5be82436d353e61ca18726e984e561f5c1cc7c6d38b29d2553c790434705a905f90a3505050565b5f918252602082815260408084206001600160a01b0393909316845291905290205460ff1690565b5f51602061454a5f395f51905f52610bbe8161105b565b5f5b82811015610cea5760025f858584818110610bdd57610bdd611624565b9050602002016020810190610bf291906114fc565b6001600160a01b0316815260208101919091526040015f205460ff16610c2b57604051630477a3e560e41b815260040160405180910390fd5b60045f858584818110610c4057610c40611624565b9050602002016020810190610c5591906114fc565b6001600160a01b0316815260208101919091526040015f205460ff1615610c8f57604051632e75fea560e11b815260040160405180910390fd5b600160045f868685818110610ca657610ca6611624565b9050602002016020810190610cbb91906114fc565b6001600160a01b0316815260208101919091526040015f20805460ff1916911515919091179055600101610bc0565b507f7bea7730b5f7dec3b33eecccf24bce2048cd842be0b6375b5163607612c8f32f83836040516105919291906116d7565b5f5f8a8a8a8a8a8a8a8a8a604051602001610d3f999897969594939291906116f2565b6040516020818303038152906040528051906020012090505f8b8b8b8b8b8b8b8b8b604051602001610d79999897969594939291906116f2565b60405160208183030381529060405290505f60405180602001610d9b90611335565b601f1982820381018352601f909101166040819052610dbf9190849060200161175f565b6040516020818303038152906040529050610de2838280519060200120306111ba565b9d9c50505050505050505050505050565b5f82815260208190526040902060010154610e0d8161105b565b6107958383611151565b5f6001600160a01b038516610e3f5760405163d92e233d60e01b815260040160405180910390fd5b6001600160a01b0388161580610e5c57506001600160a01b038716155b15610e7a5760405163d92e233d60e01b815260040160405180910390fd5b8863ffffffff165f03610ea057604051630309cb8760e51b815260040160405180910390fd5b5f898989898989600160149054906101000a900461ffff168a8a604051602001610ed2999897969594939291906116f2565b6040516020818303038152906040528051906020012090505f8a8a8a8a8a8a600160149054906101000a900461ffff168b8b604051602001610f1c999897969594939291906116f2565b60405160208183030381529060405290505f60405180602001610f3e90611335565b601f1982820381018352601f909101166040819052610f629190849060200161175f565b6040516020818303038152906040529050610f7e5f84836111ec565b6001600160a01b038082165f81815260026020526040808220805460ff191660019081179091556003805491820181559092527fc2575a0e9e593c00f959f8c92f12db2869c3395a3b0502d05e2516446f71f85b90910180546001600160a01b0319168317905551929650908a16917f8a485b4ff36109214be0efca429c224409c67d461cf57c3911534157742563f390611044908f908f908d908c906001600160a01b0394851681529290931660208301526040820152606081019190915260800190565b60405180910390a350505098975050505050505050565b611065813361128c565b50565b5f6110738383610b7f565b6110f0575f838152602081815260408083206001600160a01b03861684529091529020805460ff191660011790556110a83390565b6001600160a01b0316826001600160a01b0316847f2f8788117e7eff1d82e926ec794901d17c78024a50270940304540a733656f0d60405160405180910390a45060016105ce565b505f6105ce565b604080516001600160a01b0385811660248301528416604482015260648082018490528251808303909101815260849091019091526020810180516001600160e01b03166323b872dd60e01b1790526107959085906112c9565b5f61115c8383610b7f565b156110f0575f838152602081815260408083206001600160a01b0386168085529252808320805460ff1916905551339286917ff6391f5c32d9c69d2a47ea670b442974b53935d1edc7fd64eb21e047a839171b9190a45060016105ce565b5f604051836040820152846020820152828152600b8101905060ff8153605590206001600160a01b0316949350505050565b5f8347101561121c5760405163cf47918160e01b8152476004820152602481018590526044015b60405180910390fd5b81515f0361123d57604051631328927760e21b815260040160405180910390fd5b8282516020840186f590503d15198115161561125e576040513d5f823e3d81fd5b6001600160a01b0381166112855760405163b06ebf3d60e01b815260040160405180910390fd5b9392505050565b6112968282610b7f565b6112c55760405163e2517d3f60e01b81526001600160a01b038216600482015260248101839052604401611213565b5050565b5f5f60205f8451602086015f885af1806112e8576040513d5f823e3d81fd5b50505f513d915081156112ff57806001141561130c565b6001600160a01b0384163b155b1561079557604051635274afe760e01b81526001600160a01b0385166004820152602401611213565b612dd68061177483390190565b803561ffff81168114611353575f5ffd5b919050565b5f60208284031215611368575f5ffd5b61128582611342565b5f60208284031215611381575f5ffd5b81356001600160e01b031981168114611285575f5ffd5b5f602082840312156113a8575f5ffd5b5035919050565b5f5f602083850312156113c0575f5ffd5b823567ffffffffffffffff8111156113d6575f5ffd5b8301601f810185136113e6575f5ffd5b803567ffffffffffffffff8111156113fc575f5ffd5b8560208260051b8401011115611410575f5ffd5b6020919091019590945092505050565b80356001600160a01b0381168114611353575f5ffd5b5f5f60408385031215611447575f5ffd5b8235915061145760208401611420565b90509250929050565b803563ffffffff81168114611353575f5ffd5b5f5f5f5f5f5f5f5f5f6101208a8c03121561148c575f5ffd5b6114958a611460565b98506114a360208b01611420565b97506114b160408b01611420565b965060608a013595506114c660808b01611420565b945060a08a013593506114db60c08b01611420565b989b979a50959894979396929550929360e081013593506101000135919050565b5f6020828403121561150c575f5ffd5b61128582611420565b5f5f5f5f5f5f5f5f5f6101208a8c03121561152e575f5ffd5b6115378a611460565b985061154560208b01611420565b975061155360408b01611420565b965060608a0135955061156860808b01611420565b945060a08a0135935061157d60c08b01611342565b925061158b60e08b01611420565b989b979a5095989497939692955090936101000135919050565b5f5f5f5f5f5f5f5f610100898b0312156115bd575f5ffd5b6115c689611460565b97506115d460208a01611420565b96506115e260408a01611420565b9550606089013594506115f760808a01611420565b935060a0890135925061160c60c08a01611420565b979a969950949793969295919450919260e001359150565b634e487b7160e01b5f52603260045260245ffd5b5f60208284031215611648575f5ffd5b5051919050565b808201808211156105ce57634e487b7160e01b5f52601160045260245ffd5b8183526020830192505f815f5b848110156116aa576001600160a01b0361169483611420565b168652602095860195919091019060010161167b565b5093949350505050565b604081525f6116c760408301858761166e565b9050826020830152949350505050565b602081525f6116ea60208301848661166e565b949350505050565b63ffffffff9990991689526001600160a01b0397881660208a015295871660408901526060880194909452918516608087015260a086015261ffff1660c085015290911660e08301526101008201526101200190565b5f81518060208401855e5f93019283525090919050565b5f6116ea61176d8386611748565b8461174856fe6101c0604052348015610010575f5ffd5b50604051612dd6380380612dd683398101604081905261002f9161036d565b6001600160a01b038716158061004c57506001600160a01b038516155b1561006a57604051637f528cf160e11b815260040160405180910390fd5b83158015906100795750428411155b1561009757604051637f528cf160e11b815260040160405180910390fd5b336080526001600160a01b0388811660c081905290881660e0526101608290525f9073eeeeeeeeeeeeeeeeeeeeeeeeeeeeeeeeeeeeeeee1461013857886001600160a01b031663313ce5676040518163ffffffff1660e01b8152600401602060405180830381865afa15801561010f573d5f5f3e3d5ffd5b505050506040513d601f19601f820116820180604052508101906101339190610413565b61013b565b60125b60ff1690505f6001600160a01b03891673eeeeeeeeeeeeeeeeeeeeeeeeeeeeeeeeeeeeeeee146101ca57886001600160a01b031663313ce5676040518163ffffffff1660e01b8152600401602060405180830381865afa1580156101a1573d5f5f3e3d5ffd5b505050506040513d601f19601f820116820180604052508101906101c59190610413565b6101cd565b60125b60ff1690506101dd82601261044e565b6101e890600a610544565b610180526101f781601261044e565b61020290600a610544565b6101a0526102307f018e24ce9675721209068196867f2525c191c548d07fd44e29ff6fe34d0140e4886102a9565b50851561023d578561023f565b425b610120819052600180546007805460ff191690556101009a909a5263ffffffff9c909c1660a05262ffffff199098164290981115620100000261ffff19169790971761ffff94909416939093179098556001600160a01b0316610140525061054f95505050505050565b5f828152602081815260408083206001600160a01b038516845290915281205460ff16610349575f838152602081815260408083206001600160a01b03861684529091529020805460ff191660011790556103013390565b6001600160a01b0316826001600160a01b0316847f2f8788117e7eff1d82e926ec794901d17c78024a50270940304540a733656f0d60405160405180910390a450600161034c565b505f5b92915050565b80516001600160a01b0381168114610368575f5ffd5b919050565b5f5f5f5f5f5f5f5f5f6101208a8c031215610386575f5ffd5b895163ffffffff81168114610399575f5ffd5b98506103a760208b01610352565b97506103b560408b01610352565b60608b015190975095506103cb60808b01610352565b60a08b015160c08c0151919650945061ffff811681146103e9575f5ffd5b92506103f760e08b01610352565b91505f6101008b01519050809150509295985092959850929598565b5f60208284031215610423575f5ffd5b815160ff81168114610433575f5ffd5b9392505050565b634e487b7160e01b5f52601160045260245ffd5b8181038181111561034c5761034c61043a565b6001815b600184111561049c578085048111156104805761048061043a565b600184161561048e57908102905b60019390931c928002610465565b935093915050565b5f826104b25750600161034c565b816104be57505f61034c565b81600181146104d457600281146104de576104fa565b600191505061034c565b60ff8411156104ef576104ef61043a565b50506001821b61034c565b5060208310610133831016604e8410600b841016171561051d575081810a61034c565b6105295f198484610461565b805f190482111561053c5761053c61043a565b029392505050565b5f61043383836104a4565b60805160a05160c05160e05161010051610120516101405161016051610180516101a0516127076106cf5f395f818161053701528181611276015261133701525f81816104150152818161124b01526112d601525f818161056a0152611b5501525f818161028d0152818161117f01526111ae01525f81816107c80152818161101d015281816118ba015281816120f4015261213101525f818161060d015281816112a401528181611304015261189901525f8181610857015281816109ab01528181610c5501528181610e3b015281816111db015281816115760152818161172b015261187801525f81816103e2015281816118570152611af801525f81816106ed01528181610d69015261183601525f81816106730152818161087c015281816108ab01528181610b9f01528181610ee601528181610f150152818161136601528181611395015281816115b6015281816115e5015281816116da0152818161174c0152818161192f015281816119c801526119f701526127075ff3fe608060405260043610610219575f3560e01c80638ed5b0fc11610121578063c8796572116100a4578063eded3fda1161006b578063eded3fda146107ea578063ef9d9733146107ff578063f387bcac14610812578063f3e14f1e14610831578063f7c618c11461084657005b8063c8796572146106c8578063d23fd39a146106dc578063d547741f14610724578063d6290cd714610743578063e6fd48bc146107b757005b8063bb1f9698116100e8578063bb1f9698146105fc578063c0cd0a071461062f578063c41adae41461064e578063c45a015514610662578063c46d6d431461069557005b80638ed5b0fc1461055957806391d148541461058c5780639342c8f4146105ab578063a217fddf146105ca578063b36a921c146105dd57005b80633606f159116101a957806369b8b84c1161017057806369b8b84c146104a9578063717ab112146104c85780637d9e50a8146104dd5780638d792c44146104f25780638e4a82791461052657005b80633606f1591461040457806336568abe1461043757806346ed11d114610456578063587f5ed7146104755780635eac62391461048a57005b806324a9d853116101ed57806324a9d853146102f55780632a6247e5146103225780632f2ff15d1461038b57806331f7d964146103aa578063327107f7146103d157005b8062ae3bf81461021b57806301ffc9a71461024d5780631b3c17a21461027c578063248a9ca3146102c7575b005b348015610226575f5ffd5b5061023a6102353660046122f1565b610879565b6040519081526020015b60405180910390f35b348015610258575f5ffd5b5061026c61026736600461230c565b610a5f565b6040519015158152602001610244565b348015610287575f5ffd5b506102af7f000000000000000000000000000000000000000000000000000000000000000081565b6040516001600160a01b039091168152602001610244565b3480156102d2575f5ffd5b5061023a6102e1366004612333565b5f9081526020819052604090206001015490565b348015610300575f5ffd5b5060015461030f9061ffff1681565b60405161ffff9091168152602001610244565b34801561032d575f5ffd5b5061037961033c366004612333565b60086020525f90815260409020805460018201546002830154600384015460049094015460ff8416946101009094046001600160a01b0316939086565b6040516102449695949392919061235e565b348015610396575f5ffd5b506102196103a53660046123b0565b610a95565b3480156103b5575f5ffd5b506102af73eeeeeeeeeeeeeeeeeeeeeeeeeeeeeeeeeeeeeeee81565b3480156103dc575f5ffd5b506102af7f000000000000000000000000000000000000000000000000000000000000000081565b34801561040f575f5ffd5b5061023a7f000000000000000000000000000000000000000000000000000000000000000081565b348015610442575f5ffd5b506102196104513660046123b0565b610abf565b348015610461575f5ffd5b5061023a6104703660046122f1565b610af7565b348015610480575f5ffd5b5061023a60055481565b348015610495575f5ffd5b506102196104a43660046123de565b610b8a565b3480156104b4575f5ffd5b506102196104c336600461245c565b610ee4565b3480156104d3575f5ffd5b5061023a60025481565b3480156104e8575f5ffd5b5061023a60045481565b3480156104fd575f5ffd5b5061051161050c366004612333565b6110cc565b60408051928352602083019190915201610244565b348015610531575f5ffd5b5061023a7f000000000000000000000000000000000000000000000000000000000000000081565b348015610564575f5ffd5b5061023a7f000000000000000000000000000000000000000000000000000000000000000081565b348015610597575f5ffd5b5061026c6105a63660046123b0565b611102565b3480156105b6575f5ffd5b506102196105c5366004612333565b61112a565b3480156105d5575f5ffd5b5061023a5f81565b3480156105e8575f5ffd5b5061023a6105f7366004612333565b611248565b348015610607575f5ffd5b5061023a7f000000000000000000000000000000000000000000000000000000000000000081565b34801561063a575f5ffd5b506102196106493660046123de565b611364565b348015610659575f5ffd5b5061023a61156a565b34801561066d575f5ffd5b506102af7f000000000000000000000000000000000000000000000000000000000000000081565b3480156106a0575f5ffd5b5061023a7f018e24ce9675721209068196867f2525c191c548d07fd44e29ff6fe34d0140e481565b3480156106d3575f5ffd5b5061023a6115b3565b3480156106e7575f5ffd5b5061070f7f000000000000000000000000000000000000000000000000000000000000000081565b60405163ffffffff9091168152602001610244565b34801561072f575f5ffd5b5061021961073e3660046123b0565b611806565b34801561074e575f5ffd5b5061075761182a565b6040805163ffffffff9b909b168b526001600160a01b03998a1660208c0152979098169689019690965260608801949094526080870192909252151560a086015260c085015260e084015261010083015261012082015261014001610244565b3480156107c2575f5ffd5b5061023a7f000000000000000000000000000000000000000000000000000000000000000081565b3480156107f5575f5ffd5b5061023a60035481565b61021961080d36600461248b565b61191a565b34801561081d575f5ffd5b5060015461026c9062010000900460ff1681565b34801561083c575f5ffd5b5061023a60065481565b348015610851575f5ffd5b506102af7f000000000000000000000000000000000000000000000000000000000000000081565b5f7f00000000000000000000000000000000000000000000000000000000000000006001600160a01b03166391d148547f00000000000000000000000000000000000000000000000000000000000000006001600160a01b0316638537ed1f6040518163ffffffff1660e01b8152600401602060405180830381865afa158015610905573d5f5f3e3d5ffd5b505050506040513d601f19601f820116820180604052508101906109299190612575565b6040516001600160e01b031960e084901b1681526004810191909152336024820152604401602060405180830381865afa158015610969573d5f5f3e3d5ffd5b505050506040513d601f19601f8201168201806040525081019061098d919061258c565b6109a9576040516282b42960e81b815260040160405180910390fd5b7f00000000000000000000000000000000000000000000000000000000000000006001600160a01b0316826001600160a01b0316036109fb57604051637d8969bd60e11b815260040160405180910390fd5b610a0482610af7565b90508015610a5a57610a17823383611e78565b604080516001600160a01b0384168152602081018390527f68f67de89e96b13a3ea058af5fd44cc125efceb528482d539c7b43db2faa066e910160405180910390a15b919050565b5f6001600160e01b03198216637965db0b60e01b1480610a8f57506301ffc9a760e01b6001600160e01b03198316145b92915050565b5f82815260208190526040902060010154610aaf81611f18565b610ab98383611f25565b50505050565b6001600160a01b0381163314610ae85760405163334bd91960e11b815260040160405180910390fd5b610af28282611fb4565b505050565b5f73eeeeeeeeeeeeeeeeeeeeeeeeeeeeeeeeeeeeeeed196001600160a01b03831601610b24575047919050565b6040516370a0823160e01b81523060048201526001600160a01b038316906370a0823190602401602060405180830381865afa158015610b66573d5f5f3e3d5ffd5b505050506040513d601f19601f82011682018060405250810190610a8f9190612575565b6040516338e04b1560e11b81523060048201527f00000000000000000000000000000000000000000000000000000000000000006001600160a01b0316906371c0962a90602401602060405180830381865afa158015610bec573d5f5f3e3d5ffd5b505050506040513d601f19601f82011682018060405250810190610c10919061258c565b15610c2e57604051637f27963360e11b815260040160405180910390fd5b5f819003610c4f576040516312670c5360e11b815260040160405180910390fd5b5f610c797f0000000000000000000000000000000000000000000000000000000000000000610af7565b90505f5b82811015610ab9575f60085f868685818110610c9b57610c9b6125a7565b9050602002013581526020019081526020015f2090505f6003811115610cc357610cc361234a565b815460ff166003811115610cd957610cd961234a565b14610d1c57848483818110610cf057610cf06125a7565b905060200201356040516388bd17d760e01b8152600401610d1391815260200190565b60405180910390fd5b805461010090046001600160a01b03163314610d6757848483818110610d4457610d446125a7565b90506020020135604051631972920360e01b8152600401610d1391815260200190565b7f000000000000000000000000000000000000000000000000000000000000000063ffffffff168160030154610d9d91906125cf565b421015610dd957848483818110610db657610db66125a7565b90506020020135604051638bd3634560e01b8152600401610d1391815260200190565b600281015483811115610ded575050610ab9565b8060035f828254610dfe91906125e2565b925050819055508060065f828254610e1691906125cf565b9091555050815460ff19166002178255610e3081856125e2565b8254909450610e6f907f00000000000000000000000000000000000000000000000000000000000000009061010090046001600160a01b031683611e78565b7f31b5917b0734921f0de659d10340b427eee593f0e9d75be467effbfd84bfca21868685818110610ea257610ea26125a7565b85546040805160209384029095013585526101009091046001600160a01b03169184019190915282018490525060600160405180910390a15050600101610c7d565b7f00000000000000000000000000000000000000000000000000000000000000006001600160a01b03166391d148547f00000000000000000000000000000000000000000000000000000000000000006001600160a01b0316638537ed1f6040518163ffffffff1660e01b8152600401602060405180830381865afa158015610f6f573d5f5f3e3d5ffd5b505050506040513d601f19601f82011682018060405250810190610f939190612575565b6040516001600160e01b031960e084901b1681526004810191909152336024820152604401602060405180830381865afa158015610fd3573d5f5f3e3d5ffd5b505050506040513d601f19601f82011682018060405250810190610ff7919061258c565b611013576040516282b42960e81b815260040160405180910390fd5b80801561103f57507f000000000000000000000000000000000000000000000000000000000000000042105b1561105d57604051632dc9a48b60e21b815260040160405180910390fd5b6001805462ff00001916620100008315150217905580611089576007805460ff19166001179055611094565b6007805460ff191690555b60405181151581527f42608d890a587157308343115fbd9ad8fd091d7ba64d81940a157d776fcf96919060200160405180910390a150565b6001545f908190612710906110e59061ffff16856125f5565b6110ef9190612620565b90506110fb81846125e2565b9150915091565b5f918252602082815260408084206001600160a01b0393909316845291905290205460ff1690565b7f018e24ce9675721209068196867f2525c191c548d07fd44e29ff6fe34d0140e461115481611f18565b61115c61156a565b82111561117c57604051631267338760e31b815260040160405180910390fd5b5f7f00000000000000000000000000000000000000000000000000000000000000006001600160a01b0316156111d2577f00000000000000000000000000000000000000000000000000000000000000006111d4565b335b90506112017f00000000000000000000000000000000000000000000000000000000000000008285611e78565b604080516001600160a01b0383168152602081018590527f8a43c4352486ec339f487f64af78ca5cbf06cd47833f073d3baf3a193e503161910160405180910390a1505050565b5f7f0000000000000000000000000000000000000000000000000000000000000000600114801561129957507f00000000000000000000000000000000000000000000000000000000000000006001145b156112d057610a8f827f000000000000000000000000000000000000000000000000000000000000000066038d7ea4c6800061201d565b5f6112fb7f0000000000000000000000000000000000000000000000000000000000000000846125f5565b90505f611330827f000000000000000000000000000000000000000000000000000000000000000066038d7ea4c6800061201d565b905061135c7f000000000000000000000000000000000000000000000000000000000000000082612620565b949350505050565b7f00000000000000000000000000000000000000000000000000000000000000006001600160a01b03166391d148547f00000000000000000000000000000000000000000000000000000000000000006001600160a01b031663adf256f36040518163ffffffff1660e01b8152600401602060405180830381865afa1580156113ef573d5f5f3e3d5ffd5b505050506040513d601f19601f820116820180604052508101906114139190612575565b6040516001600160e01b031960e084901b1681526004810191909152336024820152604401602060405180830381865afa158015611453573d5f5f3e3d5ffd5b505050506040513d601f19601f82011682018060405250810190611477919061258c565b611493576040516282b42960e81b815260040160405180910390fd5b5f5b8181101561152c575f60085f8585858181106114b3576114b36125a7565b9050602002013581526020019081526020015f2090505f60038111156114db576114db61234a565b815460ff1660038111156114f1576114f161234a565b146114fc5750611524565b805460ff191660011781556002810154600380545f9061151d9084906125e2565b9091555050505b600101611495565b507f8cddf682bedc1c1e24b78b3e46e2c190bbce8e25d3061f573d9848eb0638b4bf828260405161155e92919061263f565b60405180910390a15050565b5f60055460035461159a7f0000000000000000000000000000000000000000000000000000000000000000610af7565b6115a491906125e2565b6115ae91906125e2565b905090565b5f7f00000000000000000000000000000000000000000000000000000000000000006001600160a01b03166391d148547f00000000000000000000000000000000000000000000000000000000000000006001600160a01b0316638537ed1f6040518163ffffffff1660e01b8152600401602060405180830381865afa15801561163f573d5f5f3e3d5ffd5b505050506040513d601f19601f820116820180604052508101906116639190612575565b6040516001600160e01b031960e084901b1681526004810191909152336024820152604401602060405180830381865afa1580156116a3573d5f5f3e3d5ffd5b505050506040513d601f19601f820116820180604052508101906116c7919061258c565b1580156116fd5750336001600160a01b037f00000000000000000000000000000000000000000000000000000000000000001614155b1561171a576040516282b42960e81b815260040160405180910390fd5b60055490505f6005819055506117d07f00000000000000000000000000000000000000000000000000000000000000007f00000000000000000000000000000000000000000000000000000000000000006001600160a01b0316630da4eb876040518163ffffffff1660e01b8152600401602060405180830381865afa1580156117a6573d5f5f3e3d5ffd5b505050506040513d601f19601f820116820180604052508101906117ca9190612676565b83611e78565b6040518181527f860c0aa5520013080c2f65981705fcdea474d9f7c3daf954656ed5e65d692d1f9060200160405180910390a190565b5f8281526020819052604090206001015461182081611f18565b610ab98383611fb4565b5f5f5f5f5f5f5f5f5f5f7f00000000000000000000000000000000000000000000000000000000000000007f00000000000000000000000000000000000000000000000000000000000000007f00000000000000000000000000000000000000000000000000000000000000007f00000000000000000000000000000000000000000000000000000000000000007f0000000000000000000000000000000000000000000000000000000000000000600160029054906101000a900460ff166003546004546006546118fa61156a565b995099509950995099509950995099509950995090919293949596979899565b6040516338e04b1560e11b81523060048201527f00000000000000000000000000000000000000000000000000000000000000006001600160a01b0316906371c0962a90602401602060405180830381865afa15801561197c573d5f5f3e3d5ffd5b505050506040513d601f19601f820116820180604052508101906119a0919061258c565b156119be57604051637f27963360e11b815260040160405180910390fd5b6119c66120d4565b7f00000000000000000000000000000000000000000000000000000000000000006001600160a01b03166391d148547f00000000000000000000000000000000000000000000000000000000000000006001600160a01b031663620cad996040518163ffffffff1660e01b8152600401602060405180830381865afa158015611a51573d5f5f3e3d5ffd5b505050506040513d601f19601f82011682018060405250810190611a759190612575565b6040516001600160e01b031960e084901b1681526004810191909152336024820152604401602060405180830381865afa158015611ab5573d5f5f3e3d5ffd5b505050506040513d601f19601f82011682018060405250810190611ad9919061258c565b611af657604051631a2244f360e01b815260040160405180910390fd5b7f00000000000000000000000000000000000000000000000000000000000000006001600160a01b0316836001600160a01b031614611b5357604051637d72a69360e11b81526001600160a01b0384166004820152602401610d13565b7f00000000000000000000000000000000000000000000000000000000000000008514611b9357604051636824bccd60e01b815260040160405180910390fd5b5f73eeeeeeeeeeeeeeeeeeeeeeeeeeeeeeeeeeeeeeed196001600160a01b03851601611bc0575034611c93565b3415611bf557604051637d72a69360e11b815273eeeeeeeeeeeeeeeeeeeeeeeeeeeeeeeeeeeeeeee6004820152602401610d13565b6040516370a0823160e01b815233600482015284905f906001600160a01b038316906370a0823190602401602060405180830381865afa158015611c3b573d5f5f3e3d5ffd5b505050506040513d601f19601f82011682018060405250810190611c5f9190612575565b90505f611c6b87610af7565b9050611c798333308561218b565b80611c8388610af7565b611c8d91906125e2565b93505050505b82811015611cb4576040516348879a0960e11b815260040160405180910390fd5b611cbf848683611e78565b8060045f828254611cd091906125cf565b909155505f9050611ce082611248565b90505f611ceb61156a565b905080821115611d0e57604051631267338760e31b815260040160405180910390fd5b5f5f611d19846110cc565b915091508160035f828254611d2e91906125cf565b925050819055508060055f828254611d4691906125cf565b909155505060028054905f611d5a83612691565b90915550506040805160c0810182525f8082526001600160a01b038c16602080840191909152828401899052606083018690524260808401524360a08401526002548252600890529190912081518154829060ff19166001836003811115611dc457611dc461234a565b02179055506020820151815f0160016101000a8154816001600160a01b0302191690836001600160a01b0316021790555060408201518160010155606082015181600201556080820151816003015560a08201518160040155905050886001600160a01b03168a7f6c20cdeccbed14f48d4368b5f13e518890690a91c5cb1f999f44768f69a9425b6002548886868c604051611e649594939291906126a9565b60405180910390a350505050505050505050565b73eeeeeeeeeeeeeeeeeeeeeeeeeeeeeeeeeeeeeeed196001600160a01b03841601611f0d575f826001600160a01b0316826040515f6040518083038185875af1925050503d805f8114611ee6576040519150601f19603f3d011682016040523d82523d5f602084013e611eeb565b606091505b5050905080610ab957604051630c08bcb960e21b815260040160405180910390fd5b610af28383836121f2565b611f228133612223565b50565b5f611f308383611102565b611fad575f838152602081815260408083206001600160a01b03861684529091529020805460ff19166001179055611f653390565b6001600160a01b0316826001600160a01b0316847f2f8788117e7eff1d82e926ec794901d17c78024a50270940304540a733656f0d60405160405180910390a4506001610a8f565b505f610a8f565b5f611fbf8383611102565b15611fad575f838152602081815260408083206001600160a01b0386168085529252808320805460ff1916905551339286917ff6391f5c32d9c69d2a47ea670b442974b53935d1edc7fd64eb21e047a839171b9190a4506001610a8f565b5f838302815f1985870982811083820303915050805f03612051578382816120475761204761260c565b04925050506120cd565b808411612068576120686003851502601118612260565b5f848688095f868103871696879004966002600389028118808a02820302808a02820302808a02820302808a02820302808a02820302808a02909103029181900381900460010186841190950394909402919094039290920491909117919091029150505b9392505050565b60015462010000900460ff166121895760075460ff1615801561211757507f00000000000000000000000000000000000000000000000000000000000000004210155b1561212f576001805462ff0000191662010000179055565b7f000000000000000000000000000000000000000000000000000000000000000042101561217057604051632dc9a48b60e21b815260040160405180910390fd5b60405163952ce6dd60e01b815260040160405180910390fd5b565b6040516001600160a01b038481166024830152838116604483015260648201839052610ab99186918216906323b872dd906084015b604051602081830303815290604052915060e01b6020820180516001600160e01b038381831617835250505050612271565b6040516001600160a01b03838116602483015260448201839052610af291859182169063a9059cbb906064016121c0565b61222d8282611102565b61225c5760405163e2517d3f60e01b81526001600160a01b038216600482015260248101839052604401610d13565b5050565b634e487b715f52806020526024601cfd5b5f5f60205f8451602086015f885af180612290576040513d5f823e3d81fd5b50505f513d915081156122a75780600114156122b4565b6001600160a01b0384163b155b15610ab957604051635274afe760e01b81526001600160a01b0385166004820152602401610d13565b6001600160a01b0381168114611f22575f5ffd5b5f60208284031215612301575f5ffd5b81356120cd816122dd565b5f6020828403121561231c575f5ffd5b81356001600160e01b0319811681146120cd575f5ffd5b5f60208284031215612343575f5ffd5b5035919050565b634e487b7160e01b5f52602160045260245ffd5b60c081016004881061237e57634e487b7160e01b5f52602160045260245ffd5b9681526001600160a01b0395909516602086015260408501939093526060840191909152608083015260a09091015290565b5f5f604083850312156123c1575f5ffd5b8235915060208301356123d3816122dd565b809150509250929050565b5f5f602083850312156123ef575f5ffd5b823567ffffffffffffffff811115612405575f5ffd5b8301601f81018513612415575f5ffd5b803567ffffffffffffffff81111561242b575f5ffd5b8560208260051b840101111561243f575f5ffd5b6020919091019590945092505050565b8015158114611f22575f5ffd5b5f6020828403121561246c575f5ffd5b81356120cd8161244f565b634e487b7160e01b5f52604160045260245ffd5b5f5f5f5f5f60a0868803121561249f575f5ffd5b8535945060208601356124b1816122dd565b935060408601356124c1816122dd565b925060608601359150608086013567ffffffffffffffff8111156124e3575f5ffd5b8601601f810188136124f3575f5ffd5b803567ffffffffffffffff81111561250d5761250d612477565b604051601f8201601f19908116603f0116810167ffffffffffffffff8111828210171561253c5761253c612477565b6040528181528282016020018a1015612553575f5ffd5b816020840160208301375f602083830101528093505050509295509295909350565b5f60208284031215612585575f5ffd5b5051919050565b5f6020828403121561259c575f5ffd5b81516120cd8161244f565b634e487b7160e01b5f52603260045260245ffd5b634e487b7160e01b5f52601160045260245ffd5b80820180821115610a8f57610a8f6125bb565b81810381811115610a8f57610a8f6125bb565b8082028115828204841417610a8f57610a8f6125bb565b634e487b7160e01b5f52601260045260245ffd5b5f8261263a57634e487b7160e01b5f52601260045260245ffd5b500490565b602080825281018290525f6001600160fb1b0383111561265d575f5ffd5b8260051b80856040850137919091016040019392505050565b5f60208284031215612686575f5ffd5b81516120cd816122dd565b5f600182016126a2576126a26125bb565b5060010190565b85815284602082015283604082015282606082015260a060808201525f82518060a0840152806020850160c085015e5f60c0828501015260c0601f19601f830116840101915050969550505050505056fea164736f6c634300081c000a3ddb80c4ea5aad5eeabf5ddd554d4cb03b1b1e633654fa461059269564627c0ca164736f6c634300081c000a",
    "linkReferences": {}
  },
  "methodIdentifiers": {
    "DEFAULT_ADMIN_ROLE()": "a217fddf",
    "FEE_BPS()": "bf333f2c",
    "NATIVE_TOKEN()": "31f7d964",
    "NUDGE_ADMIN_ROLE()": "8537ed1f",
    "NUDGE_OPERATOR_ROLE()": "adf256f3",
    "SWAP_CALLER_ROLE()": "620cad99",
    "campaignAddresses(uint256)": "1b422e5f",
    "collectFeesFromCampaigns(address[])": "2643fc1d",
    "deployAndFundCampaign(uint32,address,address,uint256,address,uint256,address,uint256,uint256)": "3093586a",
    "deployCampaign(uint32,address,address,uint256,address,uint256,address,uint256)": "f1104b7a",
    "getCampaignAddress(uint32,address,address,uint256,address,uint256,uint16,address,uint256)": "be4434fb",
    "getCampaignCount()": "6caa9218",
    "getRoleAdmin(bytes32)": "248a9ca3",
    "grantRole(bytes32,address)": "2f2ff15d",
    "hasRole(bytes32,address)": "91d14854",
    "isCampaign(address)": "e2714e1b",
    "isCampaignPaused(address)": "71c0962a",
    "nudgeTreasuryAddress()": "0da4eb87",
    "pauseCampaigns(address[])": "b4879fc8",
    "renounceRole(bytes32,address)": "36568abe",
    "revokeRole(bytes32,address)": "d547741f",
    "supportsInterface(bytes4)": "01ffc9a7",
    "unpauseCampaigns(address[])": "6dc91e65",
    "updateFeeSetting(uint16)": "01dd6060",
    "updateTreasuryAddress(address)": "841e4561"
  },
  "storageLayout": {
    "storage": [
      {
        "astId": 39073,
        "contract": "src/campaign/NudgeCampaignFactory.sol:NudgeCampaignFactory",
        "label": "_roles",
        "offset": 0,
        "slot": "0",
        "type": "t_mapping(t_bytes32,t_struct(RoleData)39068_storage)"
      },
      {
        "astId": 48053,
        "contract": "src/campaign/NudgeCampaignFactory.sol:NudgeCampaignFactory",
        "label": "nudgeTreasuryAddress",
        "offset": 0,
        "slot": "1",
        "type": "t_address"
      },
      {
        "astId": 48056,
        "contract": "src/campaign/NudgeCampaignFactory.sol:NudgeCampaignFactory",
        "label": "FEE_BPS",
        "offset": 20,
        "slot": "1",
        "type": "t_uint16"
      },
      {
        "astId": 48060,
        "contract": "src/campaign/NudgeCampaignFactory.sol:NudgeCampaignFactory",
        "label": "isCampaign",
        "offset": 0,
        "slot": "2",
        "type": "t_mapping(t_address,t_bool)"
      },
      {
        "astId": 48063,
        "contract": "src/campaign/NudgeCampaignFactory.sol:NudgeCampaignFactory",
        "label": "campaignAddresses",
        "offset": 0,
        "slot": "3",
        "type": "t_array(t_address)dyn_storage"
      },
      {
        "astId": 48067,
        "contract": "src/campaign/NudgeCampaignFactory.sol:NudgeCampaignFactory",
        "label": "isCampaignPaused",
        "offset": 0,
        "slot": "4",
        "type": "t_mapping(t_address,t_bool)"
      }
    ],
    "types": {
      "t_address": {
        "encoding": "inplace",
        "label": "address",
        "numberOfBytes": "20"
      },
      "t_array(t_address)dyn_storage": {
        "encoding": "dynamic_array",
        "label": "address[]",
        "numberOfBytes": "32",
        "base": "t_address"
      },
      "t_bool": {
        "encoding": "inplace",
        "label": "bool",
        "numberOfBytes": "1"
      },
      "t_bytes32": {
        "encoding": "inplace",
        "label": "bytes32",
        "numberOfBytes": "32"
      },
      "t_mapping(t_address,t_bool)": {
        "encoding": "mapping",
        "key": "t_address",
        "label": "mapping(address => bool)",
        "numberOfBytes": "32",
        "value": "t_bool"
      },
      "t_mapping(t_bytes32,t_struct(RoleData)39068_storage)": {
        "encoding": "mapping",
        "key": "t_bytes32",
        "label": "mapping(bytes32 => struct AccessControl.RoleData)",
        "numberOfBytes": "32",
        "value": "t_struct(RoleData)39068_storage"
      },
      "t_struct(RoleData)39068_storage": {
        "encoding": "inplace",
        "label": "struct AccessControl.RoleData",
        "numberOfBytes": "64",
        "members": [
          {
            "astId": 39065,
            "contract": "src/campaign/NudgeCampaignFactory.sol:NudgeCampaignFactory",
            "label": "hasRole",
            "offset": 0,
            "slot": "0",
            "type": "t_mapping(t_address,t_bool)"
          },
          {
            "astId": 39067,
            "contract": "src/campaign/NudgeCampaignFactory.sol:NudgeCampaignFactory",
            "label": "adminRole",
            "offset": 0,
            "slot": "1",
            "type": "t_bytes32"
          }
        ]
      },
      "t_uint16": {
        "encoding": "inplace",
        "label": "uint16",
        "numberOfBytes": "2"
      }
    }
  },
  "id": 48
}