{
  "abi": [
    {
      "type": "constructor",
      "inputs": [
        {
          "name": "holdingPeriodInSeconds_",
          "type": "uint32",
          "internalType": "uint32"
        },
        {
          "name": "targetToken_",
          "type": "address",
          "internalType": "address"
        },
        {
          "name": "rewardToken_",
          "type": "address",
          "internalType": "address"
        },
        {
          "name": "rewardPPQ_",
          "type": "uint256",
          "internalType": "uint256"
        },
        {
          "name": "campaignAdmin",
          "type": "address",
          "internalType": "address"
        },
        {
          "name": "startTimestamp_",
          "type": "uint256",
          "internalType": "uint256"
        },
        {
          "name": "feeBps_",
          "type": "uint16",
          "internalType": "uint16"
        },
        {
          "name": "alternativeWithdrawalAddress_",
          "type": "address",
          "internalType": "address"
        },
        {
          "name": "campaignId_",
          "type": "uint256",
          "internalType": "uint256"
        }
      ],
      "stateMutability": "nonpayable"
    },
    {
      "type": "fallback",
      "stateMutability": "payable"
    },
    {
      "type": "receive",
      "stateMutability": "payable"
    },
    {
      "type": "function",
      "name": "CAMPAIGN_ADMIN_ROLE",
      "inputs": [],
      "outputs": [
        {
          "name": "",
          "type": "bytes32",
          "internalType": "bytes32"
        }
      ],
      "stateMutability": "view"
    },
    {
      "type": "function",
      "name": "DEFAULT_ADMIN_ROLE",
      "inputs": [],
      "outputs": [
        {
          "name": "",
          "type": "bytes32",
          "internalType": "bytes32"
        }
      ],
      "stateMutability": "view"
    },
    {
      "type": "function",
      "name": "NATIVE_TOKEN",
      "inputs": [],
      "outputs": [
        {
          "name": "",
          "type": "address",
          "internalType": "address"
        }
      ],
      "stateMutability": "view"
    },
    {
      "type": "function",
      "name": "accumulatedFees",
      "inputs": [],
      "outputs": [
        {
          "name": "",
          "type": "uint256",
          "internalType": "uint256"
        }
      ],
      "stateMutability": "view"
    },
    {
      "type": "function",
      "name": "alternativeWithdrawalAddress",
      "inputs": [],
      "outputs": [
        {
          "name": "",
          "type": "address",
          "internalType": "address"
        }
      ],
      "stateMutability": "view"
    },
    {
      "type": "function",
      "name": "calculateUserRewardsAndFees",
      "inputs": [
        {
          "name": "rewardAmountIncludingFees",
          "type": "uint256",
          "internalType": "uint256"
        }
      ],
      "outputs": [
        {
          "name": "userRewards",
          "type": "uint256",
          "internalType": "uint256"
        },
        {
          "name": "fees",
          "type": "uint256",
          "internalType": "uint256"
        }
      ],
      "stateMutability": "view"
    },
    {
      "type": "function",
      "name": "campaignId",
      "inputs": [],
      "outputs": [
        {
          "name": "",
          "type": "uint256",
          "internalType": "uint256"
        }
      ],
      "stateMutability": "view"
    },
    {
      "type": "function",
      "name": "claimRewards",
      "inputs": [
        {
          "name": "pIDs",
          "type": "uint256[]",
          "internalType": "uint256[]"
        }
      ],
      "outputs": [],
      "stateMutability": "nonpayable"
    },
    {
      "type": "function",
      "name": "claimableRewardAmount",
      "inputs": [],
      "outputs": [
        {
          "name": "",
          "type": "uint256",
          "internalType": "uint256"
        }
      ],
      "stateMutability": "view"
    },
    {
      "type": "function",
      "name": "collectFees",
      "inputs": [],
      "outputs": [
        {
          "name": "feesToCollect",
          "type": "uint256",
          "internalType": "uint256"
        }
      ],
      "stateMutability": "nonpayable"
    },
    {
      "type": "function",
      "name": "distributedRewards",
      "inputs": [],
      "outputs": [
        {
          "name": "",
          "type": "uint256",
          "internalType": "uint256"
        }
      ],
      "stateMutability": "view"
    },
    {
      "type": "function",
      "name": "factory",
      "inputs": [],
      "outputs": [
        {
          "name": "",
          "type": "address",
          "internalType": "contract INudgeCampaignFactory"
        }
      ],
      "stateMutability": "view"
    },
    {
      "type": "function",
      "name": "feeBps",
      "inputs": [],
      "outputs": [
        {
          "name": "",
          "type": "uint16",
          "internalType": "uint16"
        }
      ],
      "stateMutability": "view"
    },
    {
      "type": "function",
      "name": "getBalanceOfSelf",
      "inputs": [
        {
          "name": "token",
          "type": "address",
          "internalType": "address"
        }
      ],
      "outputs": [
        {
          "name": "",
          "type": "uint256",
          "internalType": "uint256"
        }
      ],
      "stateMutability": "view"
    },
    {
      "type": "function",
      "name": "getCampaignInfo",
      "inputs": [],
      "outputs": [
        {
          "name": "_holdingPeriodInSeconds",
          "type": "uint32",
          "internalType": "uint32"
        },
        {
          "name": "_targetToken",
          "type": "address",
          "internalType": "address"
        },
        {
          "name": "_rewardToken",
          "type": "address",
          "internalType": "address"
        },
        {
          "name": "_rewardPPQ",
          "type": "uint256",
          "internalType": "uint256"
        },
        {
          "name": "_startTimestamp",
          "type": "uint256",
          "internalType": "uint256"
        },
        {
          "name": "_isCampaignActive",
          "type": "bool",
          "internalType": "bool"
        },
        {
          "name": "_pendingRewards",
          "type": "uint256",
          "internalType": "uint256"
        },
        {
          "name": "_totalReallocatedAmount",
          "type": "uint256",
          "internalType": "uint256"
        },
        {
          "name": "_distributedRewards",
          "type": "uint256",
          "internalType": "uint256"
        },
        {
          "name": "_claimableRewards",
          "type": "uint256",
          "internalType": "uint256"
        }
      ],
      "stateMutability": "view"
    },
    {
      "type": "function",
      "name": "getRewardAmountIncludingFees",
      "inputs": [
        {
          "name": "toAmount",
          "type": "uint256",
          "internalType": "uint256"
        }
      ],
      "outputs": [
        {
          "name": "",
          "type": "uint256",
          "internalType": "uint256"
        }
      ],
      "stateMutability": "view"
    },
    {
      "type": "function",
      "name": "getRoleAdmin",
      "inputs": [
        {
          "name": "role",
          "type": "bytes32",
          "internalType": "bytes32"
        }
      ],
      "outputs": [
        {
          "name": "",
          "type": "bytes32",
          "internalType": "bytes32"
        }
      ],
      "stateMutability": "view"
    },
    {
      "type": "function",
      "name": "grantRole",
      "inputs": [
        {
          "name": "role",
          "type": "bytes32",
          "internalType": "bytes32"
        },
        {
          "name": "account",
          "type": "address",
          "internalType": "address"
        }
      ],
      "outputs": [],
      "stateMutability": "nonpayable"
    },
    {
      "type": "function",
      "name": "handleReallocation",
      "inputs": [
        {
          "name": "campaignId_",
          "type": "uint256",
          "internalType": "uint256"
        },
        {
          "name": "userAddress",
          "type": "address",
          "internalType": "address"
        },
        {
          "name": "toToken",
          "type": "address",
          "internalType": "address"
        },
        {
          "name": "toAmount",
          "type": "uint256",
          "internalType": "uint256"
        },
        {
          "name": "data",
          "type": "bytes",
          "internalType": "bytes"
        }
      ],
      "outputs": [],
      "stateMutability": "payable"
    },
    {
      "type": "function",
      "name": "hasRole",
      "inputs": [
        {
          "name": "role",
          "type": "bytes32",
          "internalType": "bytes32"
        },
        {
          "name": "account",
          "type": "address",
          "internalType": "address"
        }
      ],
      "outputs": [
        {
          "name": "",
          "type": "bool",
          "internalType": "bool"
        }
      ],
      "stateMutability": "view"
    },
    {
      "type": "function",
      "name": "holdingPeriodInSeconds",
      "inputs": [],
      "outputs": [
        {
          "name": "",
          "type": "uint32",
          "internalType": "uint32"
        }
      ],
      "stateMutability": "view"
    },
    {
      "type": "function",
      "name": "invalidateParticipations",
      "inputs": [
        {
          "name": "pIDs",
          "type": "uint256[]",
          "internalType": "uint256[]"
        }
      ],
      "outputs": [],
      "stateMutability": "nonpayable"
    },
    {
      "type": "function",
      "name": "isCampaignActive",
      "inputs": [],
      "outputs": [
        {
          "name": "",
          "type": "bool",
          "internalType": "bool"
        }
      ],
      "stateMutability": "view"
    },
    {
      "type": "function",
      "name": "pID",
      "inputs": [],
      "outputs": [
        {
          "name": "",
          "type": "uint256",
          "internalType": "uint256"
        }
      ],
      "stateMutability": "view"
    },
    {
      "type": "function",
      "name": "participations",
      "inputs": [
        {
          "name": "pID",
          "type": "uint256",
          "internalType": "uint256"
        }
      ],
      "outputs": [
        {
          "name": "status",
          "type": "uint8",
          "internalType": "enum IBaseNudgeCampaign.ParticipationStatus"
        },
        {
          "name": "userAddress",
          "type": "address",
          "internalType": "address"
        },
        {
          "name": "toAmount",
          "type": "uint256",
          "internalType": "uint256"
        },
        {
          "name": "rewardAmount",
          "type": "uint256",
          "internalType": "uint256"
        },
        {
          "name": "startTimestamp",
          "type": "uint256",
          "internalType": "uint256"
        },
        {
          "name": "startBlockNumber",
          "type": "uint256",
          "internalType": "uint256"
        }
      ],
      "stateMutability": "view"
    },
    {
      "type": "function",
      "name": "pendingRewards",
      "inputs": [],
      "outputs": [
        {
          "name": "",
          "type": "uint256",
          "internalType": "uint256"
        }
      ],
      "stateMutability": "view"
    },
    {
      "type": "function",
      "name": "renounceRole",
      "inputs": [
        {
          "name": "role",
          "type": "bytes32",
          "internalType": "bytes32"
        },
        {
          "name": "callerConfirmation",
          "type": "address",
          "internalType": "address"
        }
      ],
      "outputs": [],
      "stateMutability": "nonpayable"
    },
    {
      "type": "function",
      "name": "rescueTokens",
      "inputs": [
        {
          "name": "token",
          "type": "address",
          "internalType": "address"
        }
      ],
      "outputs": [
        {
          "name": "amount",
          "type": "uint256",
          "internalType": "uint256"
        }
      ],
      "stateMutability": "nonpayable"
    },
    {
      "type": "function",
      "name": "revokeRole",
      "inputs": [
        {
          "name": "role",
          "type": "bytes32",
          "internalType": "bytes32"
        },
        {
          "name": "account",
          "type": "address",
          "internalType": "address"
        }
      ],
      "outputs": [],
      "stateMutability": "nonpayable"
    },
    {
      "type": "function",
      "name": "rewardPPQ",
      "inputs": [],
      "outputs": [
        {
          "name": "",
          "type": "uint256",
          "internalType": "uint256"
        }
      ],
      "stateMutability": "view"
    },
    {
      "type": "function",
      "name": "rewardScalingFactor",
      "inputs": [],
      "outputs": [
        {
          "name": "",
          "type": "uint256",
          "internalType": "uint256"
        }
      ],
      "stateMutability": "view"
    },
    {
      "type": "function",
      "name": "rewardToken",
      "inputs": [],
      "outputs": [
        {
          "name": "",
          "type": "address",
          "internalType": "address"
        }
      ],
      "stateMutability": "view"
    },
    {
      "type": "function",
      "name": "setIsCampaignActive",
      "inputs": [
        {
          "name": "isActive",
          "type": "bool",
          "internalType": "bool"
        }
      ],
      "outputs": [],
      "stateMutability": "nonpayable"
    },
    {
      "type": "function",
      "name": "startTimestamp",
      "inputs": [],
      "outputs": [
        {
          "name": "",
          "type": "uint256",
          "internalType": "uint256"
        }
      ],
      "stateMutability": "view"
    },
    {
      "type": "function",
      "name": "supportsInterface",
      "inputs": [
        {
          "name": "interfaceId",
          "type": "bytes4",
          "internalType": "bytes4"
        }
      ],
      "outputs": [
        {
          "name": "",
          "type": "bool",
          "internalType": "bool"
        }
      ],
      "stateMutability": "view"
    },
    {
      "type": "function",
      "name": "targetScalingFactor",
      "inputs": [],
      "outputs": [
        {
          "name": "",
          "type": "uint256",
          "internalType": "uint256"
        }
      ],
      "stateMutability": "view"
    },
    {
      "type": "function",
      "name": "targetToken",
      "inputs": [],
      "outputs": [
        {
          "name": "",
          "type": "address",
          "internalType": "address"
        }
      ],
      "stateMutability": "view"
    },
    {
      "type": "function",
      "name": "totalReallocatedAmount",
      "inputs": [],
      "outputs": [
        {
          "name": "",
          "type": "uint256",
          "internalType": "uint256"
        }
      ],
      "stateMutability": "view"
    },
    {
      "type": "function",
      "name": "withdrawRewards",
      "inputs": [
        {
          "name": "amount",
          "type": "uint256",
          "internalType": "uint256"
        }
      ],
      "outputs": [],
      "stateMutability": "nonpayable"
    },
    {
      "type": "event",
      "name": "CampaignStatusChanged",
      "inputs": [
        {
          "name": "isActive",
          "type": "bool",
          "indexed": false,
          "internalType": "bool"
        }
      ],
      "anonymous": false
    },
    {
      "type": "event",
      "name": "FeesCollected",
      "inputs": [
        {
          "name": "amount",
          "type": "uint256",
          "indexed": false,
          "internalType": "uint256"
        }
      ],
      "anonymous": false
    },
    {
      "type": "event",
      "name": "NewParticipation",
      "inputs": [
        {
          "name": "campaignId",
          "type": "uint256",
          "indexed": true,
          "internalType": "uint256"
        },
        {
          "name": "userAddress",
          "type": "address",
          "indexed": true,
          "internalType": "address"
        },
        {
          "name": "pID",
          "type": "uint256",
          "indexed": false,
          "internalType": "uint256"
        },
        {
          "name": "toAmount",
          "type": "uint256",
          "indexed": false,
          "internalType": "uint256"
        },
        {
          "name": "entitledRewards",
          "type": "uint256",
          "indexed": false,
          "internalType": "uint256"
        },
        {
          "name": "fees",
          "type": "uint256",
          "indexed": false,
          "internalType": "uint256"
        },
        {
          "name": "data",
          "type": "bytes",
          "indexed": false,
          "internalType": "bytes"
        }
      ],
      "anonymous": false
    },
    {
      "type": "event",
      "name": "NudgeRewardClaimed",
      "inputs": [
        {
          "name": "pID",
          "type": "uint256",
          "indexed": false,
          "internalType": "uint256"
        },
        {
          "name": "userAddress",
          "type": "address",
          "indexed": false,
          "internalType": "address"
        },
        {
          "name": "rewardAmount",
          "type": "uint256",
          "indexed": false,
          "internalType": "uint256"
        }
      ],
      "anonymous": false
    },
    {
      "type": "event",
      "name": "ParticipationInvalidated",
      "inputs": [
        {
          "name": "pIDs",
          "type": "uint256[]",
          "indexed": false,
          "internalType": "uint256[]"
        }
      ],
      "anonymous": false
    },
    {
      "type": "event",
      "name": "RewardsWithdrawn",
      "inputs": [
        {
          "name": "to",
          "type": "address",
          "indexed": false,
          "internalType": "address"
        },
        {
          "name": "amount",
          "type": "uint256",
          "indexed": false,
          "internalType": "uint256"
        }
      ],
      "anonymous": false
    },
    {
      "type": "event",
      "name": "RoleAdminChanged",
      "inputs": [
        {
          "name": "role",
          "type": "bytes32",
          "indexed": true,
          "internalType": "bytes32"
        },
        {
          "name": "previousAdminRole",
          "type": "bytes32",
          "indexed": true,
          "internalType": "bytes32"
        },
        {
          "name": "newAdminRole",
          "type": "bytes32",
          "indexed": true,
          "internalType": "bytes32"
        }
      ],
      "anonymous": false
    },
    {
      "type": "event",
      "name": "RoleGranted",
      "inputs": [
        {
          "name": "role",
          "type": "bytes32",
          "indexed": true,
          "internalType": "bytes32"
        },
        {
          "name": "account",
          "type": "address",
          "indexed": true,
          "internalType": "address"
        },
        {
          "name": "sender",
          "type": "address",
          "indexed": true,
          "internalType": "address"
        }
      ],
      "anonymous": false
    },
    {
      "type": "event",
      "name": "RoleRevoked",
      "inputs": [
        {
          "name": "role",
          "type": "bytes32",
          "indexed": true,
          "internalType": "bytes32"
        },
        {
          "name": "account",
          "type": "address",
          "indexed": true,
          "internalType": "address"
        },
        {
          "name": "sender",
          "type": "address",
          "indexed": true,
          "internalType": "address"
        }
      ],
      "anonymous": false
    },
    {
      "type": "event",
      "name": "TokensRescued",
      "inputs": [
        {
          "name": "token",
          "type": "address",
          "indexed": false,
          "internalType": "address"
        },
        {
          "name": "amount",
          "type": "uint256",
          "indexed": false,
          "internalType": "uint256"
        }
      ],
      "anonymous": false
    },
    {
      "type": "error",
      "name": "AccessControlBadConfirmation",
      "inputs": []
    },
    {
      "type": "error",
      "name": "AccessControlUnauthorizedAccount",
      "inputs": [
        {
          "name": "account",
          "type": "address",
          "internalType": "address"
        },
        {
          "name": "neededRole",
          "type": "bytes32",
          "internalType": "bytes32"
        }
      ]
    },
    {
      "type": "error",
      "name": "CampaignPaused",
      "inputs": []
    },
    {
      "type": "error",
      "name": "CannotRescueRewardToken",
      "inputs": []
    },
    {
      "type": "error",
      "name": "EmptyClaimArray",
      "inputs": []
    },
    {
      "type": "error",
      "name": "EmptyParticipationsArray",
      "inputs": []
    },
    {
      "type": "error",
      "name": "HoldingPeriodNotElapsed",
      "inputs": [
        {
          "name": "pID",
          "type": "uint256",
          "internalType": "uint256"
        }
      ]
    },
    {
      "type": "error",
      "name": "InactiveCampaign",
      "inputs": []
    },
    {
      "type": "error",
      "name": "InsufficientAmountReceived",
      "inputs": []
    },
    {
      "type": "error",
      "name": "InvalidCampaignId",
      "inputs": []
    },
    {
      "type": "error",
      "name": "InvalidCampaignSettings",
      "inputs": []
    },
    {
      "type": "error",
      "name": "InvalidParticipationStatus",
      "inputs": [
        {
          "name": "pID",
          "type": "uint256",
          "internalType": "uint256"
        }
      ]
    },
    {
      "type": "error",
      "name": "InvalidToTokenReceived",
      "inputs": [
        {
          "name": "toToken",
          "type": "address",
          "internalType": "address"
        }
      ]
    },
    {
      "type": "error",
      "name": "NativeTokenTransferFailed",
      "inputs": []
    },
    {
      "type": "error",
      "name": "NotEnoughRewardsAvailable",
      "inputs": []
    },
    {
      "type": "error",
      "name": "SafeERC20FailedOperation",
      "inputs": [
        {
          "name": "token",
          "type": "address",
          "internalType": "address"
        }
      ]
    },
    {
      "type": "error",
      "name": "StartDateNotReached",
      "inputs": []
    },
    {
      "type": "error",
      "name": "Unauthorized",
      "inputs": []
    },
    {
      "type": "error",
      "name": "UnauthorizedCaller",
      "inputs": [
        {
          "name": "pID",
          "type": "uint256",
          "internalType": "uint256"
        }
      ]
    },
    {
      "type": "error",
      "name": "UnauthorizedSwapCaller",
      "inputs": []
    }
  ],
  "bytecode": {
    "object": "0x6101c0604052348015610010575f5ffd5b50604051612dd6380380612dd683398101604081905261002f9161036d565b6001600160a01b038716158061004c57506001600160a01b038516155b1561006a57604051637f528cf160e11b815260040160405180910390fd5b83158015906100795750428411155b1561009757604051637f528cf160e11b815260040160405180910390fd5b336080526001600160a01b0388811660c081905290881660e0526101608290525f9073eeeeeeeeeeeeeeeeeeeeeeeeeeeeeeeeeeeeeeee1461013857886001600160a01b031663313ce5676040518163ffffffff1660e01b8152600401602060405180830381865afa15801561010f573d5f5f3e3d5ffd5b505050506040513d601f19601f820116820180604052508101906101339190610413565b61013b565b60125b60ff1690505f6001600160a01b03891673eeeeeeeeeeeeeeeeeeeeeeeeeeeeeeeeeeeeeeee146101ca57886001600160a01b031663313ce5676040518163ffffffff1660e01b8152600401602060405180830381865afa1580156101a1573d5f5f3e3d5ffd5b505050506040513d601f19601f820116820180604052508101906101c59190610413565b6101cd565b60125b60ff1690506101dd82601261044e565b6101e890600a610544565b610180526101f781601261044e565b61020290600a610544565b6101a0526102307f018e24ce9675721209068196867f2525c191c548d07fd44e29ff6fe34d0140e4886102a9565b50851561023d578561023f565b425b610120819052600180546007805460ff191690556101009a909a5263ffffffff9c909c1660a05262ffffff199098164290981115620100000261ffff19169790971761ffff94909416939093179098556001600160a01b0316610140525061054f95505050505050565b5f828152602081815260408083206001600160a01b038516845290915281205460ff16610349575f838152602081815260408083206001600160a01b03861684529091529020805460ff191660011790556103013390565b6001600160a01b0316826001600160a01b0316847f2f8788117e7eff1d82e926ec794901d17c78024a50270940304540a733656f0d60405160405180910390a450600161034c565b505f5b92915050565b80516001600160a01b0381168114610368575f5ffd5b919050565b5f5f5f5f5f5f5f5f5f6101208a8c031215610386575f5ffd5b895163ffffffff81168114610399575f5ffd5b98506103a760208b01610352565b97506103b560408b01610352565b60608b015190975095506103cb60808b01610352565b60a08b015160c08c0151919650945061ffff811681146103e9575f5ffd5b92506103f760e08b01610352565b91505f6101008b01519050809150509295985092959850929598565b5f60208284031215610423575f5ffd5b815160ff81168114610433575f5ffd5b9392505050565b634e487b7160e01b5f52601160045260245ffd5b8181038181111561034c5761034c61043a565b6001815b600184111561049c578085048111156104805761048061043a565b600184161561048e57908102905b60019390931c928002610465565b935093915050565b5f826104b25750600161034c565b816104be57505f61034c565b81600181146104d457600281146104de576104fa565b600191505061034c565b60ff8411156104ef576104ef61043a565b50506001821b61034c565b5060208310610133831016604e8410600b841016171561051d575081810a61034c565b6105295f198484610461565b805f190482111561053c5761053c61043a565b029392505050565b5f61043383836104a4565b60805160a05160c05160e05161010051610120516101405161016051610180516101a0516127076106cf5f395f818161053701528181611276015261133701525f81816104150152818161124b01526112d601525f818161056a0152611b5501525f818161028d0152818161117f01526111ae01525f81816107c80152818161101d015281816118ba015281816120f4015261213101525f818161060d015281816112a401528181611304015261189901525f8181610857015281816109ab01528181610c5501528181610e3b015281816111db015281816115760152818161172b015261187801525f81816103e2015281816118570152611af801525f81816106ed01528181610d69015261183601525f81816106730152818161087c015281816108ab01528181610b9f01528181610ee601528181610f150152818161136601528181611395015281816115b6015281816115e5015281816116da0152818161174c0152818161192f015281816119c801526119f701526127075ff3fe608060405260043610610219575f3560e01c80638ed5b0fc11610121578063c8796572116100a4578063eded3fda1161006b578063eded3fda146107ea578063ef9d9733146107ff578063f387bcac14610812578063f3e14f1e14610831578063f7c618c11461084657005b8063c8796572146106c8578063d23fd39a146106dc578063d547741f14610724578063d6290cd714610743578063e6fd48bc146107b757005b8063bb1f9698116100e8578063bb1f9698146105fc578063c0cd0a071461062f578063c41adae41461064e578063c45a015514610662578063c46d6d431461069557005b80638ed5b0fc1461055957806391d148541461058c5780639342c8f4146105ab578063a217fddf146105ca578063b36a921c146105dd57005b80633606f159116101a957806369b8b84c1161017057806369b8b84c146104a9578063717ab112146104c85780637d9e50a8146104dd5780638d792c44146104f25780638e4a82791461052657005b80633606f1591461040457806336568abe1461043757806346ed11d114610456578063587f5ed7146104755780635eac62391461048a57005b806324a9d853116101ed57806324a9d853146102f55780632a6247e5146103225780632f2ff15d1461038b57806331f7d964146103aa578063327107f7146103d157005b8062ae3bf81461021b57806301ffc9a71461024d5780631b3c17a21461027c578063248a9ca3146102c7575b005b348015610226575f5ffd5b5061023a6102353660046122f1565b610879565b6040519081526020015b60405180910390f35b348015610258575f5ffd5b5061026c61026736600461230c565b610a5f565b6040519015158152602001610244565b348015610287575f5ffd5b506102af7f000000000000000000000000000000000000000000000000000000000000000081565b6040516001600160a01b039091168152602001610244565b3480156102d2575f5ffd5b5061023a6102e1366004612333565b5f9081526020819052604090206001015490565b348015610300575f5ffd5b5060015461030f9061ffff1681565b60405161ffff9091168152602001610244565b34801561032d575f5ffd5b5061037961033c366004612333565b60086020525f90815260409020805460018201546002830154600384015460049094015460ff8416946101009094046001600160a01b0316939086565b6040516102449695949392919061235e565b348015610396575f5ffd5b506102196103a53660046123b0565b610a95565b3480156103b5575f5ffd5b506102af73eeeeeeeeeeeeeeeeeeeeeeeeeeeeeeeeeeeeeeee81565b3480156103dc575f5ffd5b506102af7f000000000000000000000000000000000000000000000000000000000000000081565b34801561040f575f5ffd5b5061023a7f000000000000000000000000000000000000000000000000000000000000000081565b348015610442575f5ffd5b506102196104513660046123b0565b610abf565b348015610461575f5ffd5b5061023a6104703660046122f1565b610af7565b348015610480575f5ffd5b5061023a60055481565b348015610495575f5ffd5b506102196104a43660046123de565b610b8a565b3480156104b4575f5ffd5b506102196104c336600461245c565b610ee4565b3480156104d3575f5ffd5b5061023a60025481565b3480156104e8575f5ffd5b5061023a60045481565b3480156104fd575f5ffd5b5061051161050c366004612333565b6110cc565b60408051928352602083019190915201610244565b348015610531575f5ffd5b5061023a7f000000000000000000000000000000000000000000000000000000000000000081565b348015610564575f5ffd5b5061023a7f000000000000000000000000000000000000000000000000000000000000000081565b348015610597575f5ffd5b5061026c6105a63660046123b0565b611102565b3480156105b6575f5ffd5b506102196105c5366004612333565b61112a565b3480156105d5575f5ffd5b5061023a5f81565b3480156105e8575f5ffd5b5061023a6105f7366004612333565b611248565b348015610607575f5ffd5b5061023a7f000000000000000000000000000000000000000000000000000000000000000081565b34801561063a575f5ffd5b506102196106493660046123de565b611364565b348015610659575f5ffd5b5061023a61156a565b34801561066d575f5ffd5b506102af7f000000000000000000000000000000000000000000000000000000000000000081565b3480156106a0575f5ffd5b5061023a7f018e24ce9675721209068196867f2525c191c548d07fd44e29ff6fe34d0140e481565b3480156106d3575f5ffd5b5061023a6115b3565b3480156106e7575f5ffd5b5061070f7f000000000000000000000000000000000000000000000000000000000000000081565b60405163ffffffff9091168152602001610244565b34801561072f575f5ffd5b5061021961073e3660046123b0565b611806565b34801561074e575f5ffd5b5061075761182a565b6040805163ffffffff9b909b168b526001600160a01b03998a1660208c0152979098169689019690965260608801949094526080870192909252151560a086015260c085015260e084015261010083015261012082015261014001610244565b3480156107c2575f5ffd5b5061023a7f000000000000000000000000000000000000000000000000000000000000000081565b3480156107f5575f5ffd5b5061023a60035481565b61021961080d36600461248b565b61191a565b34801561081d575f5ffd5b5060015461026c9062010000900460ff1681565b34801561083c575f5ffd5b5061023a60065481565b348015610851575f5ffd5b506102af7f000000000000000000000000000000000000000000000000000000000000000081565b5f7f00000000000000000000000000000000000000000000000000000000000000006001600160a01b03166391d148547f00000000000000000000000000000000000000000000000000000000000000006001600160a01b0316638537ed1f6040518163ffffffff1660e01b8152600401602060405180830381865afa158015610905573d5f5f3e3d5ffd5b505050506040513d601f19601f820116820180604052508101906109299190612575565b6040516001600160e01b031960e084901b1681526004810191909152336024820152604401602060405180830381865afa158015610969573d5f5f3e3d5ffd5b505050506040513d601f19601f8201168201806040525081019061098d919061258c565b6109a9576040516282b42960e81b815260040160405180910390fd5b7f00000000000000000000000000000000000000000000000000000000000000006001600160a01b0316826001600160a01b0316036109fb57604051637d8969bd60e11b815260040160405180910390fd5b610a0482610af7565b90508015610a5a57610a17823383611e78565b604080516001600160a01b0384168152602081018390527f68f67de89e96b13a3ea058af5fd44cc125efceb528482d539c7b43db2faa066e910160405180910390a15b919050565b5f6001600160e01b03198216637965db0b60e01b1480610a8f57506301ffc9a760e01b6001600160e01b03198316145b92915050565b5f82815260208190526040902060010154610aaf81611f18565b610ab98383611f25565b50505050565b6001600160a01b0381163314610ae85760405163334bd91960e11b815260040160405180910390fd5b610af28282611fb4565b505050565b5f73eeeeeeeeeeeeeeeeeeeeeeeeeeeeeeeeeeeeeeed196001600160a01b03831601610b24575047919050565b6040516370a0823160e01b81523060048201526001600160a01b038316906370a0823190602401602060405180830381865afa158015610b66573d5f5f3e3d5ffd5b505050506040513d601f19601f82011682018060405250810190610a8f9190612575565b6040516338e04b1560e11b81523060048201527f00000000000000000000000000000000000000000000000000000000000000006001600160a01b0316906371c0962a90602401602060405180830381865afa158015610bec573d5f5f3e3d5ffd5b505050506040513d601f19601f82011682018060405250810190610c10919061258c565b15610c2e57604051637f27963360e11b815260040160405180910390fd5b5f819003610c4f576040516312670c5360e11b815260040160405180910390fd5b5f610c797f0000000000000000000000000000000000000000000000000000000000000000610af7565b90505f5b82811015610ab9575f60085f868685818110610c9b57610c9b6125a7565b9050602002013581526020019081526020015f2090505f6003811115610cc357610cc361234a565b815460ff166003811115610cd957610cd961234a565b14610d1c57848483818110610cf057610cf06125a7565b905060200201356040516388bd17d760e01b8152600401610d1391815260200190565b60405180910390fd5b805461010090046001600160a01b03163314610d6757848483818110610d4457610d446125a7565b90506020020135604051631972920360e01b8152600401610d1391815260200190565b7f000000000000000000000000000000000000000000000000000000000000000063ffffffff168160030154610d9d91906125cf565b421015610dd957848483818110610db657610db66125a7565b90506020020135604051638bd3634560e01b8152600401610d1391815260200190565b600281015483811115610ded575050610ab9565b8060035f828254610dfe91906125e2565b925050819055508060065f828254610e1691906125cf565b9091555050815460ff19166002178255610e3081856125e2565b8254909450610e6f907f00000000000000000000000000000000000000000000000000000000000000009061010090046001600160a01b031683611e78565b7f31b5917b0734921f0de659d10340b427eee593f0e9d75be467effbfd84bfca21868685818110610ea257610ea26125a7565b85546040805160209384029095013585526101009091046001600160a01b03169184019190915282018490525060600160405180910390a15050600101610c7d565b7f00000000000000000000000000000000000000000000000000000000000000006001600160a01b03166391d148547f00000000000000000000000000000000000000000000000000000000000000006001600160a01b0316638537ed1f6040518163ffffffff1660e01b8152600401602060405180830381865afa158015610f6f573d5f5f3e3d5ffd5b505050506040513d601f19601f82011682018060405250810190610f939190612575565b6040516001600160e01b031960e084901b1681526004810191909152336024820152604401602060405180830381865afa158015610fd3573d5f5f3e3d5ffd5b505050506040513d601f19601f82011682018060405250810190610ff7919061258c565b611013576040516282b42960e81b815260040160405180910390fd5b80801561103f57507f000000000000000000000000000000000000000000000000000000000000000042105b1561105d57604051632dc9a48b60e21b815260040160405180910390fd5b6001805462ff00001916620100008315150217905580611089576007805460ff19166001179055611094565b6007805460ff191690555b60405181151581527f42608d890a587157308343115fbd9ad8fd091d7ba64d81940a157d776fcf96919060200160405180910390a150565b6001545f908190612710906110e59061ffff16856125f5565b6110ef9190612620565b90506110fb81846125e2565b9150915091565b5f918252602082815260408084206001600160a01b0393909316845291905290205460ff1690565b7f018e24ce9675721209068196867f2525c191c548d07fd44e29ff6fe34d0140e461115481611f18565b61115c61156a565b82111561117c57604051631267338760e31b815260040160405180910390fd5b5f7f00000000000000000000000000000000000000000000000000000000000000006001600160a01b0316156111d2577f00000000000000000000000000000000000000000000000000000000000000006111d4565b335b90506112017f00000000000000000000000000000000000000000000000000000000000000008285611e78565b604080516001600160a01b0383168152602081018590527f8a43c4352486ec339f487f64af78ca5cbf06cd47833f073d3baf3a193e503161910160405180910390a1505050565b5f7f0000000000000000000000000000000000000000000000000000000000000000600114801561129957507f00000000000000000000000000000000000000000000000000000000000000006001145b156112d057610a8f827f000000000000000000000000000000000000000000000000000000000000000066038d7ea4c6800061201d565b5f6112fb7f0000000000000000000000000000000000000000000000000000000000000000846125f5565b90505f611330827f000000000000000000000000000000000000000000000000000000000000000066038d7ea4c6800061201d565b905061135c7f000000000000000000000000000000000000000000000000000000000000000082612620565b949350505050565b7f00000000000000000000000000000000000000000000000000000000000000006001600160a01b03166391d148547f00000000000000000000000000000000000000000000000000000000000000006001600160a01b031663adf256f36040518163ffffffff1660e01b8152600401602060405180830381865afa1580156113ef573d5f5f3e3d5ffd5b505050506040513d601f19601f820116820180604052508101906114139190612575565b6040516001600160e01b031960e084901b1681526004810191909152336024820152604401602060405180830381865afa158015611453573d5f5f3e3d5ffd5b505050506040513d601f19601f82011682018060405250810190611477919061258c565b611493576040516282b42960e81b815260040160405180910390fd5b5f5b8181101561152c575f60085f8585858181106114b3576114b36125a7565b9050602002013581526020019081526020015f2090505f60038111156114db576114db61234a565b815460ff1660038111156114f1576114f161234a565b146114fc5750611524565b805460ff191660011781556002810154600380545f9061151d9084906125e2565b9091555050505b600101611495565b507f8cddf682bedc1c1e24b78b3e46e2c190bbce8e25d3061f573d9848eb0638b4bf828260405161155e92919061263f565b60405180910390a15050565b5f60055460035461159a7f0000000000000000000000000000000000000000000000000000000000000000610af7565b6115a491906125e2565b6115ae91906125e2565b905090565b5f7f00000000000000000000000000000000000000000000000000000000000000006001600160a01b03166391d148547f00000000000000000000000000000000000000000000000000000000000000006001600160a01b0316638537ed1f6040518163ffffffff1660e01b8152600401602060405180830381865afa15801561163f573d5f5f3e3d5ffd5b505050506040513d601f19601f820116820180604052508101906116639190612575565b6040516001600160e01b031960e084901b1681526004810191909152336024820152604401602060405180830381865afa1580156116a3573d5f5f3e3d5ffd5b505050506040513d601f19601f820116820180604052508101906116c7919061258c565b1580156116fd5750336001600160a01b037f00000000000000000000000000000000000000000000000000000000000000001614155b1561171a576040516282b42960e81b815260040160405180910390fd5b60055490505f6005819055506117d07f00000000000000000000000000000000000000000000000000000000000000007f00000000000000000000000000000000000000000000000000000000000000006001600160a01b0316630da4eb876040518163ffffffff1660e01b8152600401602060405180830381865afa1580156117a6573d5f5f3e3d5ffd5b505050506040513d601f19601f820116820180604052508101906117ca9190612676565b83611e78565b6040518181527f860c0aa5520013080c2f65981705fcdea474d9f7c3daf954656ed5e65d692d1f9060200160405180910390a190565b5f8281526020819052604090206001015461182081611f18565b610ab98383611fb4565b5f5f5f5f5f5f5f5f5f5f7f00000000000000000000000000000000000000000000000000000000000000007f00000000000000000000000000000000000000000000000000000000000000007f00000000000000000000000000000000000000000000000000000000000000007f00000000000000000000000000000000000000000000000000000000000000007f0000000000000000000000000000000000000000000000000000000000000000600160029054906101000a900460ff166003546004546006546118fa61156a565b995099509950995099509950995099509950995090919293949596979899565b6040516338e04b1560e11b81523060048201527f00000000000000000000000000000000000000000000000000000000000000006001600160a01b0316906371c0962a90602401602060405180830381865afa15801561197c573d5f5f3e3d5ffd5b505050506040513d601f19601f820116820180604052508101906119a0919061258c565b156119be57604051637f27963360e11b815260040160405180910390fd5b6119c66120d4565b7f00000000000000000000000000000000000000000000000000000000000000006001600160a01b03166391d148547f00000000000000000000000000000000000000000000000000000000000000006001600160a01b031663620cad996040518163ffffffff1660e01b8152600401602060405180830381865afa158015611a51573d5f5f3e3d5ffd5b505050506040513d601f19601f82011682018060405250810190611a759190612575565b6040516001600160e01b031960e084901b1681526004810191909152336024820152604401602060405180830381865afa158015611ab5573d5f5f3e3d5ffd5b505050506040513d601f19601f82011682018060405250810190611ad9919061258c565b611af657604051631a2244f360e01b815260040160405180910390fd5b7f00000000000000000000000000000000000000000000000000000000000000006001600160a01b0316836001600160a01b031614611b5357604051637d72a69360e11b81526001600160a01b0384166004820152602401610d13565b7f00000000000000000000000000000000000000000000000000000000000000008514611b9357604051636824bccd60e01b815260040160405180910390fd5b5f73eeeeeeeeeeeeeeeeeeeeeeeeeeeeeeeeeeeeeeed196001600160a01b03851601611bc0575034611c93565b3415611bf557604051637d72a69360e11b815273eeeeeeeeeeeeeeeeeeeeeeeeeeeeeeeeeeeeeeee6004820152602401610d13565b6040516370a0823160e01b815233600482015284905f906001600160a01b038316906370a0823190602401602060405180830381865afa158015611c3b573d5f5f3e3d5ffd5b505050506040513d601f19601f82011682018060405250810190611c5f9190612575565b90505f611c6b87610af7565b9050611c798333308561218b565b80611c8388610af7565b611c8d91906125e2565b93505050505b82811015611cb4576040516348879a0960e11b815260040160405180910390fd5b611cbf848683611e78565b8060045f828254611cd091906125cf565b909155505f9050611ce082611248565b90505f611ceb61156a565b905080821115611d0e57604051631267338760e31b815260040160405180910390fd5b5f5f611d19846110cc565b915091508160035f828254611d2e91906125cf565b925050819055508060055f828254611d4691906125cf565b909155505060028054905f611d5a83612691565b90915550506040805160c0810182525f8082526001600160a01b038c16602080840191909152828401899052606083018690524260808401524360a08401526002548252600890529190912081518154829060ff19166001836003811115611dc457611dc461234a565b02179055506020820151815f0160016101000a8154816001600160a01b0302191690836001600160a01b0316021790555060408201518160010155606082015181600201556080820151816003015560a08201518160040155905050886001600160a01b03168a7f6c20cdeccbed14f48d4368b5f13e518890690a91c5cb1f999f44768f69a9425b6002548886868c604051611e649594939291906126a9565b60405180910390a350505050505050505050565b73eeeeeeeeeeeeeeeeeeeeeeeeeeeeeeeeeeeeeeed196001600160a01b03841601611f0d575f826001600160a01b0316826040515f6040518083038185875af1925050503d805f8114611ee6576040519150601f19603f3d011682016040523d82523d5f602084013e611eeb565b606091505b5050905080610ab957604051630c08bcb960e21b815260040160405180910390fd5b610af28383836121f2565b611f228133612223565b50565b5f611f308383611102565b611fad575f838152602081815260408083206001600160a01b03861684529091529020805460ff19166001179055611f653390565b6001600160a01b0316826001600160a01b0316847f2f8788117e7eff1d82e926ec794901d17c78024a50270940304540a733656f0d60405160405180910390a4506001610a8f565b505f610a8f565b5f611fbf8383611102565b15611fad575f838152602081815260408083206001600160a01b0386168085529252808320805460ff1916905551339286917ff6391f5c32d9c69d2a47ea670b442974b53935d1edc7fd64eb21e047a839171b9190a4506001610a8f565b5f838302815f1985870982811083820303915050805f03612051578382816120475761204761260c565b04925050506120cd565b808411612068576120686003851502601118612260565b5f848688095f868103871696879004966002600389028118808a02820302808a02820302808a02820302808a02820302808a02820302808a02909103029181900381900460010186841190950394909402919094039290920491909117919091029150505b9392505050565b60015462010000900460ff166121895760075460ff1615801561211757507f00000000000000000000000000000000000000000000000000000000000000004210155b1561212f576001805462ff0000191662010000179055565b7f000000000000000000000000000000000000000000000000000000000000000042101561217057604051632dc9a48b60e21b815260040160405180910390fd5b60405163952ce6dd60e01b815260040160405180910390fd5b565b6040516001600160a01b038481166024830152838116604483015260648201839052610ab99186918216906323b872dd906084015b604051602081830303815290604052915060e01b6020820180516001600160e01b038381831617835250505050612271565b6040516001600160a01b03838116602483015260448201839052610af291859182169063a9059cbb906064016121c0565b61222d8282611102565b61225c5760405163e2517d3f60e01b81526001600160a01b038216600482015260248101839052604401610d13565b5050565b634e487b715f52806020526024601cfd5b5f5f60205f8451602086015f885af180612290576040513d5f823e3d81fd5b50505f513d915081156122a75780600114156122b4565b6001600160a01b0384163b155b15610ab957604051635274afe760e01b81526001600160a01b0385166004820152602401610d13565b6001600160a01b0381168114611f22575f5ffd5b5f60208284031215612301575f5ffd5b81356120cd816122dd565b5f6020828403121561231c575f5ffd5b81356001600160e01b0319811681146120cd575f5ffd5b5f60208284031215612343575f5ffd5b5035919050565b634e487b7160e01b5f52602160045260245ffd5b60c081016004881061237e57634e487b7160e01b5f52602160045260245ffd5b9681526001600160a01b0395909516602086015260408501939093526060840191909152608083015260a09091015290565b5f5f604083850312156123c1575f5ffd5b8235915060208301356123d3816122dd565b809150509250929050565b5f5f602083850312156123ef575f5ffd5b823567ffffffffffffffff811115612405575f5ffd5b8301601f81018513612415575f5ffd5b803567ffffffffffffffff81111561242b575f5ffd5b8560208260051b840101111561243f575f5ffd5b6020919091019590945092505050565b8015158114611f22575f5ffd5b5f6020828403121561246c575f5ffd5b81356120cd8161244f565b634e487b7160e01b5f52604160045260245ffd5b5f5f5f5f5f60a0868803121561249f575f5ffd5b8535945060208601356124b1816122dd565b935060408601356124c1816122dd565b925060608601359150608086013567ffffffffffffffff8111156124e3575f5ffd5b8601601f810188136124f3575f5ffd5b803567ffffffffffffffff81111561250d5761250d612477565b604051601f8201601f19908116603f0116810167ffffffffffffffff8111828210171561253c5761253c612477565b6040528181528282016020018a1015612553575f5ffd5b816020840160208301375f602083830101528093505050509295509295909350565b5f60208284031215612585575f5ffd5b5051919050565b5f6020828403121561259c575f5ffd5b81516120cd8161244f565b634e487b7160e01b5f52603260045260245ffd5b634e487b7160e01b5f52601160045260245ffd5b80820180821115610a8f57610a8f6125bb565b81810381811115610a8f57610a8f6125bb565b8082028115828204841417610a8f57610a8f6125bb565b634e487b7160e01b5f52601260045260245ffd5b5f8261263a57634e487b7160e01b5f52601260045260245ffd5b500490565b602080825281018290525f6001600160fb1b0383111561265d575f5ffd5b8260051b80856040850137919091016040019392505050565b5f60208284031215612686575f5ffd5b81516120cd816122dd565b5f600182016126a2576126a26125bb565b5060010190565b85815284602082015283604082015282606082015260a060808201525f82518060a0840152806020850160c085015e5f60c0828501015260c0601f19601f830116840101915050969550505050505056fea164736f6c634300081c000a",
    "linkReferences": {}
  },
  "methodIdentifiers": {
    "CAMPAIGN_ADMIN_ROLE()": "c46d6d43",
    "DEFAULT_ADMIN_ROLE()": "a217fddf",
    "NATIVE_TOKEN()": "31f7d964",
    "accumulatedFees()": "587f5ed7",
    "alternativeWithdrawalAddress()": "1b3c17a2",
    "calculateUserRewardsAndFees(uint256)": "8d792c44",
    "campaignId()": "8ed5b0fc",
    "claimRewards(uint256[])": "5eac6239",
    "claimableRewardAmount()": "c41adae4",
    "collectFees()": "c8796572",
    "distributedRewards()": "f3e14f1e",
    "factory()": "c45a0155",
    "feeBps()": "24a9d853",
    "getBalanceOfSelf(address)": "46ed11d1",
    "getCampaignInfo()": "d6290cd7",
    "getRewardAmountIncludingFees(uint256)": "b36a921c",
    "getRoleAdmin(bytes32)": "248a9ca3",
    "grantRole(bytes32,address)": "2f2ff15d",
    "handleReallocation(uint256,address,address,uint256,bytes)": "ef9d9733",
    "hasRole(bytes32,address)": "91d14854",
    "holdingPeriodInSeconds()": "d23fd39a",
    "invalidateParticipations(uint256[])": "c0cd0a07",
    "isCampaignActive()": "f387bcac",
    "pID()": "717ab112",
    "participations(uint256)": "2a6247e5",
    "pendingRewards()": "eded3fda",
    "renounceRole(bytes32,address)": "36568abe",
    "rescueTokens(address)": "00ae3bf8",
    "revokeRole(bytes32,address)": "d547741f",
    "rewardPPQ()": "bb1f9698",
    "rewardScalingFactor()": "8e4a8279",
    "rewardToken()": "f7c618c1",
    "setIsCampaignActive(bool)": "69b8b84c",
    "startTimestamp()": "e6fd48bc",
    "supportsInterface(bytes4)": "01ffc9a7",
    "targetScalingFactor()": "3606f159",
    "targetToken()": "327107f7",
    "totalReallocatedAmount()": "7d9e50a8",
    "withdrawRewards(uint256)": "9342c8f4"
  },
  "storageLayout": {
    "storage": [
      {
        "astId": 39073,
        "contract": "src/campaign/NudgeCampaign.sol:NudgeCampaign",
        "label": "_roles",
        "offset": 0,
        "slot": "0",
        "type": "t_mapping(t_bytes32,t_struct(RoleData)39068_storage)"
      },
      {
        "astId": 46960,
        "contract": "src/campaign/NudgeCampaign.sol:NudgeCampaign",
        "label": "feeBps",
        "offset": 0,
        "slot": "1",
        "type": "t_uint16"
      },
      {
        "astId": 46962,
        "contract": "src/campaign/NudgeCampaign.sol:NudgeCampaign",
        "label": "isCampaignActive",
        "offset": 2,
        "slot": "1",
        "type": "t_bool"
      },
      {
        "astId": 46970,
        "contract": "src/campaign/NudgeCampaign.sol:NudgeCampaign",
        "label": "pID",
        "offset": 0,
        "slot": "2",
        "type": "t_uint256"
      },
      {
        "astId": 46972,
        "contract": "src/campaign/NudgeCampaign.sol:NudgeCampaign",
        "label": "pendingRewards",
        "offset": 0,
        "slot": "3",
        "type": "t_uint256"
      },
      {
        "astId": 46974,
        "contract": "src/campaign/NudgeCampaign.sol:NudgeCampaign",
        "label": "totalReallocatedAmount",
        "offset": 0,
        "slot": "4",
        "type": "t_uint256"
      },
      {
        "astId": 46976,
        "contract": "src/campaign/NudgeCampaign.sol:NudgeCampaign",
        "label": "accumulatedFees",
        "offset": 0,
        "slot": "5",
        "type": "t_uint256"
      },
      {
        "astId": 46978,
        "contract": "src/campaign/NudgeCampaign.sol:NudgeCampaign",
        "label": "distributedRewards",
        "offset": 0,
        "slot": "6",
        "type": "t_uint256"
      },
      {
        "astId": 46980,
        "contract": "src/campaign/NudgeCampaign.sol:NudgeCampaign",
        "label": "_manuallyDeactivated",
        "offset": 0,
        "slot": "7",
        "type": "t_bool"
      },
      {
        "astId": 46985,
        "contract": "src/campaign/NudgeCampaign.sol:NudgeCampaign",
        "label": "participations",
        "offset": 0,
        "slot": "8",
        "type": "t_mapping(t_uint256,t_struct(Participation)49369_storage)"
      }
    ],
    "types": {
      "t_address": {
        "encoding": "inplace",
        "label": "address",
        "numberOfBytes": "20"
      },
      "t_bool": {
        "encoding": "inplace",
        "label": "bool",
        "numberOfBytes": "1"
      },
      "t_bytes32": {
        "encoding": "inplace",
        "label": "bytes32",
        "numberOfBytes": "32"
      },
      "t_enum(ParticipationStatus)49355": {
        "encoding": "inplace",
        "label": "enum IBaseNudgeCampaign.ParticipationStatus",
        "numberOfBytes": "1"
      },
      "t_mapping(t_address,t_bool)": {
        "encoding": "mapping",
        "key": "t_address",
        "label": "mapping(address => bool)",
        "numberOfBytes": "32",
        "value": "t_bool"
      },
      "t_mapping(t_bytes32,t_struct(RoleData)39068_storage)": {
        "encoding": "mapping",
        "key": "t_bytes32",
        "label": "mapping(bytes32 => struct AccessControl.RoleData)",
        "numberOfBytes": "32",
        "value": "t_struct(RoleData)39068_storage"
      },
      "t_mapping(t_uint256,t_struct(Participation)49369_storage)": {
        "encoding": "mapping",
        "key": "t_uint256",
        "label": "mapping(uint256 => struct IBaseNudgeCampaign.Participation)",
        "numberOfBytes": "32",
        "value": "t_struct(Participation)49369_storage"
      },
      "t_struct(Participation)49369_storage": {
        "encoding": "inplace",
        "label": "struct IBaseNudgeCampaign.Participation",
        "numberOfBytes": "160",
        "members": [
          {
            "astId": 49358,
            "contract": "src/campaign/NudgeCampaign.sol:NudgeCampaign",
            "label": "status",
            "offset": 0,
            "slot": "0",
            "type": "t_enum(ParticipationStatus)49355"
          },
          {
            "astId": 49360,
            "contract": "src/campaign/NudgeCampaign.sol:NudgeCampaign",
            "label": "userAddress",
            "offset": 1,
            "slot": "0",
            "type": "t_address"
          },
          {
            "astId": 49362,
            "contract": "src/campaign/NudgeCampaign.sol:NudgeCampaign",
            "label": "toAmount",
            "offset": 0,
            "slot": "1",
            "type": "t_uint256"
          },
          {
            "astId": 49364,
            "contract": "src/campaign/NudgeCampaign.sol:NudgeCampaign",
            "label": "rewardAmount",
            "offset": 0,
            "slot": "2",
            "type": "t_uint256"
          },
          {
            "astId": 49366,
            "contract": "src/campaign/NudgeCampaign.sol:NudgeCampaign",
            "label": "startTimestamp",
            "offset": 0,
            "slot": "3",
            "type": "t_uint256"
          },
          {
            "astId": 49368,
            "contract": "src/campaign/NudgeCampaign.sol:NudgeCampaign",
            "label": "startBlockNumber",
            "offset": 0,
            "slot": "4",
            "type": "t_uint256"
          }
        ]
      },
      "t_struct(RoleData)39068_storage": {
        "encoding": "inplace",
        "label": "struct AccessControl.RoleData",
        "numberOfBytes": "64",
        "members": [
          {
            "astId": 39065,
            "contract": "src/campaign/NudgeCampaign.sol:NudgeCampaign",
            "label": "hasRole",
            "offset": 0,
            "slot": "0",
            "type": "t_mapping(t_address,t_bool)"
          },
          {
            "astId": 39067,
            "contract": "src/campaign/NudgeCampaign.sol:NudgeCampaign",
            "label": "adminRole",
            "offset": 0,
            "slot": "1",
            "type": "t_bytes32"
          }
        ]
      },
      "t_uint16": {
        "encoding": "inplace",
        "label": "uint16",
        "numberOfBytes": "2"
      },
      "t_uint256": {
        "encoding": "inplace",
        "label": "uint256",
        "numberOfBytes": "32"
      }
    }
  },
  "id": 47
}